:020000040800F2
:10000000E0070020350200088F170008DB14000805
:100010008D1700082B040008FB1A000800000000E0
:10002000000000000000000000000000E1170008D0
:100030002D04000800000000DF170008E317000887
:100040004F0200084F0200084F0200084F0200084C
:100050004F0200084F0200084F0200084F0200083C
:100060004F0200084F0200084F0200084F0200082C
:100070004F0200084F0200084F0200084F0200081C
:100080004F0200084F0200084F0200080000000065
:100090000000000000000000000000004F02000807
:1000A0004F0200088D1800084F0200084F02000898
:1000B0004F0200084F0200084F0200084F020008DC
:1000C0004F0200084F0200084F0200084F020008CC
:1000D0004F0200084F0200084F0200080000000015
:1000E0004F0200084F0200084F0200080000000005
:1000F0000000000000000000000000004F020008A7
:10010000000000004F0200084F0200084F020008E4
:1001100000000000000000000000000000000000DF
:100120004F0200084F0200084F0200084F0200086B
:100130004F02000800000000000000000000000066
:100140000000000000000000000000004F02000856
:100150004F0200084F0200084F0200084F0200083B
:100160004F0200084F0200080000000000000000DD
:10017000000000000000000000000000000000007F
:10018000000000004F020008000000000000000016
:100190004F02000800F002F800F03CF80AA090E8D6
:1001A000000C82448344AAF10107DA4501D100F032
:1001B00031F8AFF2090EBAE80F0013F0010F18BFC3
:1001C000FB1A43F001031847001A0000201A000030
:1001D000103A24BF78C878C1FAD8520724BF30C873
:1001E00030C144BF04680C60704700000023002445
:1001F00000250026103A28BF78C1FBD8520728BF37
:1002000030C148BF0B6070471FB501F0CFFC1FBD68
:1002100010B510BD00F0CFF81146FFF7F5FF01F063
:100220007DFC00F0EDF803B4FFF7F2FF03BC00F033
:10023000F5F800000948804709480047FEE7FEE757
:10024000FEE7FEE7FEE7FEE7FEE7FEE7FEE7FEE786
:1002500004480549054A064B704700007D18000810
:1002600095010008E0010020E0070020E0030020E5
:10027000E003002053EA020C00F069802DE9F04B06
:100280004FF00006002B1FBFB3FA83F503FA05F405
:1002900024FA05F65E4012BF1643B2FA82F502FA5E
:1002A00005F4C5F120051EBF22FA05FC44EA0C0442
:1002B000203556EA044C4FEA144418BF641C4FF032
:1002C00000084FF00009904271EB030C39D300296C
:1002D00019BFB1FA81F701FA07F6B0FA80F700FA10
:1002E00007F6C7F120071EBF20FA07FC46EA0C06F6
:1002F0002037B6FBF4FCA7EB0507103F07F01F0BF8
:10030000CBF120060CFA0BFB2CFA06F644BFB346E1
:100310000026202FA4BF5E464FF0000B5BEA060CC0
:1003200008BF4FF0010B19EB0B09ABFB027C48EB4C
:100330000608C01B06FB02CC0BFB03CC71EB0C01C7
:10034000C1E70B46024641464846BDE8F08B13B56F
:100350004FF000004FF00001AFF30080BDE81C40FB
:1003600070474FF0000200B5134694469646203978
:1003700022BFA0E80C50A0E80C50B1F12001BFF45E
:10038000F7AF090728BFA0E80C5048BF0CC05DF8C4
:1003900004EB890028BF40F8042B08BF704748BF12
:1003A00020F8022B11F0804F18BF00F8012B704786
:1003B000704770477047754600F02CF8AE46050050
:1003C0006946534620F00700854618B020B5FFF770
:1003D0003FFFBDE820404FF000064FF000074FF010
:1003E00000084FF0000B21F00701AC46ACE8C00953
:1003F000ACE8C009ACE8C009ACE8C0098D4670475C
:1004000010B50446AFF300802046BDE81040FFF76A
:100410000ABF0000004870477C01002001491820F5
:10042000ABBEFEE7260002007047FEE7704772B6DB
:10043000FEE700002DE9F84FDFF8B8A10022012403
:1004400003254FF00F090AF1040BAAF1040E00BFB7
:100450000B6804FA02F63340B34273D10F7907F008
:100460000307012F01D0022F16D187684FEA4208F7
:1004700005FA08FC27EA0C07D1F80CC00CFA08FCB6
:100480004CEA070CC0F808C04768B7430E79C6F3BA
:10049000001696403E4346600E79F643B6070DD0EF
:1004A000C768560005FA06FC27EA0C07D1F808C011
:1004B0000CFA06FC4CEA070CC0F80CC00E7906F0EA
:1004C0000306022E10D1D60800EB8608D8F820606B
:1004D00057074FEAD76C09FA0CF7BE430F6907FAC2
:1004E0000CF73743C8F8207006684FEA420C05FA4B
:1004F0000CF7BE430F7907F0030707FA0CF73743F1
:1005000007604E6816F4403F6DD03B4E376847F4A5
:1005100080473760366822F0030706F4804600966D
:10052000364E07EB060CDCF8086897073F0F09FA10
:1005300007F826EA0806DFF8C880404503D14FF0E7
:1005400000081EE04FE0DFF8BC80404502D14FF0CC
:10055000010816E0DFF8B080404502D14FF00208F4
:100560000FE0DFF8A880404502D14FF0030808E013
:10057000DFF89C80404502D14FF0040801E04FF0C5
:10058000070808FA07F848EA0608CCF80888DAF8F5
:1005900000605746D1F804C09E435FEACC2C00D5DA
:1005A0001E433E60DBF800605F46D1F804C09E4306
:1005B0005FEA8C2C00D51E433E60DEF80060774673
:1005C000D1F804C09E435FEA8C3C00D51E433E60D8
:1005D000084F083F3E68D1F804C09E435FEACC3C18
:1005E00000D51E433E60521C102AFFF431AFBDE817
:1005F000F88F0000083C01404438024000300140C0
:10060000000002400004024000080240000C0240CA
:10061000001002400AB1816170470904FBE7000045
:100620000148806870470000080000200248816887
:100630000278114481607047080000200B4810B513
:10064000016841F400710160016841F4806101605A
:10065000016841F480710160032000F06FF80F2001
:1006600000F006F800F024F8002010BD003C024025
:1006700070B50D4D04464FF47A712878B1FBF0F057
:100680000A490968B1FBF0F000F0EAFA48B9102C09
:1006900007D200222146501E00F030F800206C6086
:1006A00070BD012070BD0000080000201400002073
:1006B0000A4808B5016841F480410160006800F40F
:1006C000804000900548001F016841F080510160A2
:1006D000006800F08050009008BD000044380240DF
:1006E000002809DB00F01F02012191404009800031
:1006F00000F1E020C0F8001170470000F0B40E4B8C
:100700001B680C46C3F30223C3F10705042D00D96F
:100710000425191D072901D2002300E0DB1E012654
:1007200006FA05F1491E214099409E40761E16406A
:100730003143F0BC01F0E2B90CED00E0064900F0F5
:10074000070208684FF6FF03184040EA0220034AF8
:1007500010430860704700000CED00E00000FA054F
:100760002DE9F0470E46050065D0DFF81481D8F872
:100770000000F7B200F00700B04207D288F800701E
:10078000D8F8000000F00700B04254D128683D4C72
:10079000810712D5400703D5206840F4E05020605F
:1007A0002878000703D5206840F460402060206866
:1007B000A96820F0F000084320602878C0072DD0F9
:1007C000304968680839012812D0022813D003285C
:1007D00011D00968890700292DDA216821F0030169
:1007E00001432160FFF71CFF814641F2883A0EE089
:1007F00009688903EFE709688901ECE7FFF710FF53
:10080000A0EB0901514502D90320BDE8F08720681B
:10081000696800F00C00B0EB810FEFD1D8F8001040
:10082000404601F00701B14207D90770006800F0A7
:100830000700B04201D00120E7E72878400705D53E
:100840002068E96820F4E050084320602878000719
:1008500006D52068296920F4604040EAC100206084
:1008600000F018F82168084AC1F30311515CC84030
:100870000649086006480068FFF7FAFE0020C4E752
:10088000003C024008380240B61B0008140000205B
:100890000C000020154810B5006810F00C02144838
:1008A00013D04110042A0FD0082A0ED10F4C241F58
:1008B0002268236802F03F025B0207D52068C0F37C
:1008C0008810A0FB010106E0084610BD2168C1F3B5
:1008D0008811A1FB00010023FFF7CCFC2168C1F3C4
:1008E0000141491C4900B0FBF1F010BD083802403D
:1008F0000024F4002DE9F84F04006ED02078DFF8D2
:100900004C93C007A9F104054AD009F1040001681D
:10091000C1F38101012908D00068C0F381000228D9
:100920000AD1D9F80000400206D52868800337D5DF
:1009300060680028E1D033E06068B0F5803F10D0F7
:10094000B0F5A02F286810D020F4803028602868E7
:1009500020F4802028606068A8B1FFF761FE064699
:100960000DE0286840F48030F4E740F480202860EF
:10097000F7E700BFFFF754FE801B642873D8286890
:100980008003F7D50CE0FFF74BFE064605E000BFFD
:10099000FFF746FE801B6428F0D828688003F7D450
:1009A0002078DFF8AC8280074FF0000A3ED5A748D8
:1009B000001D016811F00C0F08D00068C0F3810021
:1009C00002280BD1D9F80000400207D4286880071C
:1009D00016D5E068012800D112E033E1E068B8B133
:1009E0000120C8F80000FFF71BFE064605E000BF27
:1009F000FFF716FE801B0228C0D828688007F7D5AD
:100A00002868216920F0F80040EAC10028600DE064
:100A1000C8F800A0FFF704FE064604E0FFF700FE5A
:100A2000801B02281FD828688007F7D42078000789
:100A300022D5864F87486169703771B10121016005
:100A4000FFF7EEFD064604E0FFF7EAFD801B0228F3
:100A500009D838688007F7D50EE0C0F800A0FFF786
:100A6000DFFD064605E082E0FFF7DAFD801B022885
:100A70007DD838688007F7D42078400768D5DFF83C
:100A8000CCB100270BF13C0BDBF80000C0000BD40D
:100A9000DBF8001041F08051CBF80010DBF80000CB
:100AA000012700F0805000906B4E3068C00510D4D4
:100AB000306840F480703060FFF7B2FD009005E0D0
:100AC000FFF7AEFD0099401A022850D83068C005E3
:100AD000F6D55E4EA0686C3601280FD00528306828
:100AE00010D020F001003060306820F00400306049
:100AF000A068B8B1FFF794FD00900FE0306840F0B7
:100B00000100F4E740F004003060F7E7FFF788FDEC
:100B10000099411A41F28830814266D830688007D6
:100B2000F4D50EE0FFF77CFD009007E0FFF778FDBD
:100B30000099411A41F28830814256D830688007C6
:100B4000F4D42FB1DBF8001021F08051CBF8001065
:100B5000A069C8B33D49091D0968C1F38101022993
:100B60004AD00228504607D0C8F8600000E03CE0B8
:100B7000FFF756FD04463BE04746C8F86000FFF724
:100B80004FFD064605E000BFFFF74AFD801B022827
:100B90002BD828688001F7D4D4E907010843A16A5B
:100BA0002E4A490802EB0141626A41EA8211084378
:100BB00094F82C1040EA0161C9F800100120386651
:100BC000FFF72EFD044606E03EE000BFFFF728FDDC
:100BD000001B022809D828688001F7D534E000BF3F
:100BE000FFF71EFD001B022802D90320BDE8F88F85
:100BF00028688001F4D427E00128F7D0D9F8000054
:100C0000E26900F4800191421CD1226A00F03F01A8
:100C1000914217D147F6C071626A0140B1EB821F61
:100C200010D1A26A4FF0FF3300F4403103EB5202BF
:100C3000B1EB024F06D194F82C1000F07060B0EBCD
:100C4000016F01D00120D1E70020CFE70438024036
:100C500000004742800E4742007000400000FFFF46
:100C600010B5401EB0F1807F01D3012010BD4FF0C0
:100C7000E02460610F21601700F040FF0020A061B8
:100C800007202061002010BD7047704770B590F8B4
:100C90003C20012A2CD0012480F83C40022280F81C
:100CA0003D2003685A689D6822F070060A68324346
:100CB0005A60104B02689A420ED0B2F1804F0BD0AE
:100CC0000D4B9A4208D00D4B9A4205D00C4B9A42DC
:100CD00002D00C4B9A4204D1496825F08003194395
:100CE000916080F83D40002180F83C10084670BDBE
:100CF000022070BD000001400004004000080040D8
:100D0000000C00400040014010B5040003D094F8EE
:100D10003D0010B107E0012010BD002084F83C0028
:100D2000204600F01FF8022084F83D00211D2068B5
:100D300000F0B2FD012084F8460084F83E0084F8FB
:100D40003F0084F8400084F8410084F8420084F8B1
:100D5000430084F8440084F8450084F83D000020F6
:100D600010BD000008B501681748814212D117482C
:100D7000016841F0010101600068002200F00100FB
:100D8000009011461920FFF7B9FCBDE80840192072
:100D9000FFF7A6BC0D48001FB1F1804F0BD00C4AE5
:100DA000914207D1016841F002010160006800F042
:100DB0000200009008BD016841F001010160006877
:100DC00000F00100F5E70000000001404438024057
:100DD0000004004090F83D10012901D00120704727
:100DE000022180F83D100168CA6842F00102CA6021
:100DF00000680E4988420ED0B0F1804F0BD00C49EC
:100E0000884208D00B49884205D00B49884202D05D
:100E10000A49884204D1816801F00701062903D0FC
:100E2000016841F0010101600020704700000140AD
:100E30000004004000080040000C00400040014059
:100E400070B5044690F83C000025012817D0012613
:100E500084F83C60022084F83D002068826822F01B
:100E6000770222F47F4282600868502838D00DDC77
:100E700020284FD005DC90B3102811D14AE0022081
:100E800070BD302846D040280AD13BE060282FD0E2
:100E900070280DD0B0F5805F03D0B0F5005F12D0A0
:100EA000012584F83D60002084F83C00284670BD90
:100EB000CB68D1E90121206800F047FD20688168F6
:100EC00041F0770109E0CB68D1E90121206800F009
:100ED0003CFD2068816841F480418160E1E719E0D0
:100EE000CA684968206800F0E5FD5021206806E0E6
:100EF000CA684968206800F0EEFD6021206800F0B3
:100F00002EFDCEE7CA684968206800F0D3FD402175
:100F10002068F4E7226801461046F0E72DE9F04129
:100F20000D46040003D094F83D0018B108E00120FC
:100F3000BDE8F081002084F83C00204600F040F835
:100F4000022084F83D002068816844F20702914342
:100F50008160211D206800F09FFC226890689169E3
:100F6000166A2B68AF69034340F20330814341EABC
:100F70000721A868EF6908434FF6FC418843E968F8
:100F800040EA0720014328692F6A000140EA073040
:100F9000084369686D6926F0AA0646EA05152943E3
:100FA00093602268906154F8460B0162012004F8B6
:100FB0001F09E0752076E0762077A0750020B7E75E
:100FC00010B586B0044614216846FFF7CAF91349E4
:100FD000206888421FD112480021026842F00402B2
:100FE0000260006800F0040005900D4810380268A7
:100FF00042F0020202600068012200F00200059047
:10100000C02000900220CDE90102CDE9031069461D
:101010000448FFF70FFA06B010BD000000080040BA
:10102000403802400004024070B590F83E6004462B
:1010300090F83F5090F8423090F84320022021B1C0
:1010400004290ED0012E1BD114E0012E18D1012B42
:1010500016D184F83E0084F8420001220021206865
:1010600020E0012D0CD1012A0AD184F83F0084F838
:10107000430014E0012D03D1012B01D1012A01D03D
:10108000012070BD84F83E0084F83F0084F84200DF
:1010900084F8430001220021206800F049FC01226D
:1010A0000421206800F044FC2068016841F001013F
:1010B0000160002070BD704770B50446006801698A
:1010C0004FF00005C943890715D4C168C943890792
:1010D00011D4E91E01610120207720688069800712
:1010E000204602D0FFF7E7FF04E000F0DBF82046DF
:1010F00000F06DF9257720680169C943490717D4C5
:10110000C168C943490713D46FF00401016102208B
:1011100020772068806910F4407F204602D0FFF7D6
:10112000CAFF04E000F0BEF8204600F050F9257731
:1011300020680169C943090716D4C168C943090772
:1011400012D46FF008010161042020772068C06983
:101150008007204602D0FFF7AEFF04E000F0A2F8BF
:10116000204600F034F9257720680169C943C90693
:1011700017D4C168C943C90613D46FF010010161C7
:10118000082020772068C06910F4407F204602D0F4
:10119000FFF791FF04E000F085F8204600F017F912
:1011A000257720680169C943C90708D1C168C943C7
:1011B000C90704D1891E0161204600F061F9206849
:1011C0000169C943090609D4C168C943090605D4A0
:1011D0006FF0800101612046FFF756FD206801692C
:1011E000C943490609D4C168C943490605D46FF00B
:1011F00040010161204600F06FF920680169C94390
:1012000089060BD4C168C943890607D46FF0200151
:1012100001612046BDE87040FFF737BD70BD00009A
:1012200010B586B0044614216846FFF79AF8236883
:10123000002018490222B3F1804F17D0164CA34268
:1012400012D10B6843F004030B60096801F004013C
:10125000059180210091CDE90120CDE903020F48DD
:10126000694600BFFFF7E6F806B010BD0B6843F013
:1012700002030B60096801F0020105910821009149
:10128000CDE9012003200390012004906946044821
:10129000E8E7000030380240000400400008024047
:1012A00000040240704770B5044690F83C000026E8
:1012B0000D4601280FD0012084F83C006AB1042AB1
:1012C0001DD0082A2FD00C2A3FD00126002084F8F8
:1012D0003C00304670BD022070BD206800F048FB25
:1012E0002068816941F0080181612068816921F0ED
:1012F00004018161206881692A69114311E0206835
:1013000000F05EFB2068816941F400618161206822
:10131000816921F480618161206881692A6941EADB
:1013200002218161D2E7206800F076FB2068C16964
:1013300041F00801C1612068C16921F00401C16167
:101340002068C1692A69114311E0206800F090FB10
:101350002068C16941F40061C1612068C16921F45C
:101360008061C1612068C1692A6941EA0221C161C5
:10137000ACE710B5040003D094F83D0010B107E0CD
:10138000012010BD002084F83C00204600F01EF82B
:10139000022084F83D00211D206800F07DFA012024
:1013A00084F8460084F83E0084F83F0084F840004A
:1013B00084F8410084F8420084F8430084F8440033
:1013C00084F8450084F83D00002010BD7047704748
:1013D00010B50446022249B104290ED0082913D0C1
:1013E00094F84100012816D0012010BD94F83E0069
:1013F0000128F9D184F83E200FE094F83F0001283D
:10140000F2D184F83F2008E094F840000128EBD1A5
:1014100084F8402001E084F841200122206800F097
:1014200087FA12492068884203D1426C42F4004294
:101430004264206888420ED0B0F1804F0BD00C4936
:10144000884208D00B49884205D00B49884202D017
:101450000A49884204D1816801F00701062903D0B6
:10146000016841F001010160002010BD0000014051
:101470000004004000080040000C00400040014013
:1014800010B500680E49884218D10E480068416ABC
:101490000D48018001884288891A81800188418035
:1014A000002220210948FFF7B5F8012291020848DF
:1014B000FFF7B0F8074914200968886310BD0000E1
:1014C0000000014034010020000000200004024020
:1014D00000000240A40000207047FEE72DE9F04123
:1014E00086B014216846FEF73CFF234800240168BB
:1014F00041F080010160016801F0800105910168FF
:1015000041F004010160016801F0040105910168E6
:1015100041F001010160016801F0010105910168DC
:1015200041F0020101600068144F00F002004FF426
:1015300080650590002229463846FFF76BF8DFF8F2
:101540004080002220214046FFF764F800950226E3
:1015500001250396CDE9015469463846FEF76AFF36
:101560002020CDE90005CDE9024669464046FEF758
:1015700061FF06B0BDE8F081303802400000024053
:101580000004024010B586B000241848009401946D
:1015900002940394049414490594016040F2E731E5
:1015A000C0E9011440F28F61C0E903144461846111
:1015B000FFF7AAFB08B1FEF73AFF4FF48050009006
:1015C00069460A48FFF73CFC08B1FEF730FF049477
:1015D00004A906480594FFF759FB002801D0FEF73F
:1015E00026FF06B010BD0000000001405C00002096
:1015F00010B58EB000240794089409940A940B94B3
:101600001C2168460C94FEF7ACFE1D484FF080414B
:1016100001605321C0E901146321C0E9031484610E
:10162000FFF772FB08B1FEF702FF4FF480500790FE
:1016300007A91348FFF704FC08B1FEF7F8FE1048AD
:10164000FFF797FE08B1FEF7F2FE0B940BA90C48CA
:101650000C94FFF71BFB08B1FEF7E9FE6020CDE913
:10166000000402940422694605480494FFF71BFE17
:1016700008B1FEF7DCFE0248FFF7D2FD0EB010BD48
:10168000A400002010B58EB000240794089409949B
:101690000A940B941C2168460C94FEF762FE1F48C6
:1016A0001D49016040F2E731C0E9011440F28F6149
:1016B000C0E903148461FFF727FB08B1FEF7B7FE0A
:1016C0004FF48050079007A91448FFF7B9FB08B101
:1016D000FEF7ADFE1148FFF74CFE08B1FEF7A7FE7E
:1016E0000B940BA90D480C94FFF7D0FA08B1FEF744
:1016F0009EFE6020CDE9000402940422694607485A
:101700000494FFF7D0FD08B1FEF791FE0348FFF700
:1017100087FD0EB010BD000000040040EC0000206A
:1017200010B58CB024216846FEF71BFE0024164835
:10173000099414490A94C0E900144FF6FF71C0E9F6
:101740000241046184610320CDE900040120CDE958
:1017500002040F210491CDE90540CDE90741694616
:101760000948FFF7DBFB08B1FEF761FE099409A900
:1017700005480A94FFF78AFA002801D0FEF757FEC1
:101780000CB010BD0008004034010020FEE7FEE769
:1017900080ED060A80ED0E2AB0EE002AC0ED0D2A7B
:1017A00060EE022A61EE003A22EEA03A03EE803AA1
:1017B00020EE000A20EE010A01EE823A80ED033AA3
:1017C000C0EC030AB1EE001A01EEC10A02EEE00A13
:1017D00080ED040A21EE820A80ED050A7047704709
:1017E0007047FEF723BF000030B593B03021684644
:1017F000FEF7B7FD14210CA8FEF7B3FD1D48002528
:10180000016841F080510160006800F08050119043
:101810001948016821F4404141F400410160006829
:10182000022400F440401190012000900004019037
:101830008001CDE9064008AA0420542182E8130063
:101840000B906846FFF756F808B172B6FEE70CA990
:101850000F2081E831004FF48050CDE90F050221BF
:101860000CA8FEF77DFF002801D072B6FEE713B08A
:1018700030BD00004038024000700040024801685E
:1018800041F470010160704788ED00E00148FFF706
:1018900013BC00005C000020F0B502681D4B1E4C1C
:1018A0009F031E4D1E4E984207D0B84205D0A0425D
:1018B00003D0A84201D0B04204D122F0700C4A6893
:1018C00042EA0C02984210D0B8420ED0A0420CD08E
:1018D000A8420AD0B04208D0124CA04205D0124C07
:1018E000A04202D0114CA04203D122F44074CA6835
:1018F00022434C6922F08002224302608A68C2625D
:101900000A688262984201D109690163012141613B
:10191000F0BD00000000014000040040000800404D
:10192000000C0040004001400044014000480140DC
:1019300010B501F01F030121046A99408C43046231
:10194000016A9A401143016210BD10B5846842EAF1
:10195000032224F47F440A432243826010BD82683C
:1019600022F070020A4342F00701816070470000D4
:1019700030B5026A22F001020262026A4368846999
:1019800024F073050C682C4322F002058A682A4370
:101990000A4DA8420BD122F00805CA6823F440730F
:1019A0002A434D6922F004021D438B692B43436097
:1019B000846149684163026230BD0000000001405B
:1019C00030B5026A22F010020262026A436884693A
:1019D0000D6824F4E64444EA05248D6822F02002D0
:1019E00042EA05120B4DA8420ED1CD6822F08002CA
:1019F00042EA05124D6923F4406343EA85038D6989
:101A000022F0400243EA85034360846149688163B0
:101A1000026230BD0000014030B5026A22F48072DB
:101A20000262036A4268C46923F4007324F07305F8
:101A30000C682C438D6843EA05230C4DA8420ED157
:101A4000CD6823F4006343EA05234D6922F4405234
:101A500042EA05128D6923F4806342EA051242606E
:101A6000C4614968C163036230BD000000000140E9
:101A700030B5026A22F480520262046A4268C36985
:101A80000D6823F4E64343EA05238D6824F40054EB
:101A900044EA0534064DA84204D14D6922F480423F
:101AA00042EA85124260C36149680164046230BD44
:101AB0000000014010B5036A046A24F001040462C6
:101AC000846924F0F00444EA021423F00A020A4371
:101AD0008461026210BD10B5036A23F01003036233
:101AE0008369046A23F4704343EA023224F0A003BA
:101AF00043EA01118261016210BDFEE70907090E88
:101B0000002804DB00F1E02080F80014704700F0AA
:101B10000F0000F1E02080F8141D7047FEF78EFDE5
:101B2000FFF762FEFFF7DAFCFFF72CFDFFF760FD21
:101B3000FFF7A8FDFFF7F4FD1448FFF74BF99FED01
:101B4000141AF2EE042AF7EE000AB0EE412AF0EE83
:101B5000411A9FED100A1048FFF71AFE04210F48A2
:101B6000FFF736FC002220210D48FEF753FD00222E
:101B70004FF480610B48FEF74DFD00210A48FFF746
:101B800053FA04210848FFF74FFAFEE75C000020F3
:101B9000000000000AD7A33C18000020A400002089
:101BA0000004024000000240340100204FF0407069
:101BB000E1EE100A70470000000000000000010282
:101BC0000304060708090000E81B000800000020C5
:101BD00018000000D0010008001C000818000020B8
:101BE000C8070000EC010008000000000000000031
:101BF0000100000010000000000000000024F400BC
:040000050800019559
:00000001FF
