:020000040800F2
:1000000060080020390200086F180008A7150008D2
:100010006D180008B9040008CD1B0008000000009E
:10002000000000000000000000000000F5190008BA
:10003000BB04000800000000A1190008F91900081D
:10004000530200085302000853020008530200083C
:10005000530200085302000853020008530200082C
:10006000530200085302000853020008530200081C
:10007000530200085302000853020008530200080C
:100080005302000853020008530200080000000059
:100090000000000000000000000000005302000803
:1000A00053020008951A0008530200085302000882
:1000B0005302000853020008A11A00085302000866
:1000C00053020008530200085302000853020008BC
:1000D0005302000853020008530200080000000009
:1000E00053020008530200085302000800000000F9
:1000F00000000000000000000000000053020008A3
:1001000000000000530200085302000853020008D8
:1001100000000000000000000000000000000000DF
:10012000530200085302000853020008530200085B
:100130005302000800000000000000000000000062
:100140000000000000000000000000005302000852
:10015000530200085302000853020008530200082B
:1001600053020008530200080000000000000000D5
:10017000000000000000000000000000000000007F
:100180000000000053020008000000000000000012
:100190005302000800F002F800F03EF80AA090E8D0
:1001A000000C82448344AAF10107DA4501D100F032
:1001B00033F8AFF2090EBAE80F0013F0010F18BFC1
:1001C000FB1A43F001031847DC240000FC24000064
:1001D000103A24BF78C878C1FAD8520724BF30C873
:1001E00030C144BF04680C60704700000023002445
:1001F00000250026103A28BF78C1FBD8520728BF37
:1002000030C148BF0B6070471FB502F038FA00F0EC
:10021000D5F81FBD10B510BD00F0E2F81146FFF78C
:10022000F3FF01F0A1FE00F000F903B4FFF7F2FFC5
:1002300003BC00F007F9000009488047094800475F
:10024000FEE7FEE7FEE7FEE7FEE7FEE7FEE7FEE786
:10025000FEE7FEE704480549054A064B70470000E3
:10026000851A00089501000860020020600800203F
:10027000600400206004002053EA020C00F0698052
:100280002DE9F04B4FF00006002B1FBFB3FA83F5AA
:1002900003FA05F424FA05F65E4012BF1643B2FADB
:1002A00082F502FA05F4C5F120051EBF22FA05FC0D
:1002B00044EA0C04203556EA044C4FEA144418BFB3
:1002C000641C4FF000084FF00009904271EB030CE2
:1002D00039D3002919BFB1FA81F701FA07F6B0FA4C
:1002E00080F700FA07F6C7F120071EBF20FA07FCC7
:1002F00046EA0C062037B6FBF4FCA7EB0507103FD7
:1003000007F01F0BCBF120060CFA0BFB2CFA06F6BC
:1003100044BFB3460026202FA4BF5E464FF0000B1B
:100320005BEA060C08BF4FF0010B19EB0B09ABFBA6
:10033000027C48EB0608C01B06FB02CC0BFB03CC7F
:1003400071EB0C01C1E70B46024641464846BDE849
:10035000F08B13B54FF000004FF00001AFF30080B9
:10036000BDE81C4070474FF0000200B513469446AC
:100370009646203922BFA0E80C50A0E80C50B1F1FD
:100380002001BFF4F7AF090728BFA0E80C5048BF11
:100390000CC05DF804EB890028BF40F8042B08BFAF
:1003A000704748BF20F8022B11F0804F18BF00F8AB
:1003B000012B7047704770477047000070B5064CBE
:1003C0007C44064D7D4403E0206820448047241D82
:1003D000AC42F9D170BD00000023000000230000F2
:1003E000754600F02BF8AE4605006946534620F0EE
:1003F0000700854618B020B5FFF72CFFBDE8204068
:100400004FF000064FF000074FF000084FF0000BD0
:1004100021F00701AC46ACE8C009ACE8C009ACE883
:10042000C009ACE8C0098D46704710B50446AFF36B
:1004300000802046BDE81040FFF7F7BE0048704737
:100440000002002001491820ABBEFEE72600020092
:10045000704700000A4801680A48026841EAC23150
:10046000416041688268891A4EF660225143064A0B
:1004700091FBF2F1C16041688160C0687047000083
:1004800024080040380000206072140010B50848AD
:1004900000F0EEFC0021064800F01CFE0421044898
:1004A00000F018FE03494FF0FF30086010BD000057
:1004B000B801002038000020FEE7704772B6FEE762
:1004C0002DE9F84FDFF8B8A10022012403254FF0F1
:1004D0000F090AF1040BAAF1040E00BF0B6804FA1D
:1004E00002F63340B34273D10F7907F00307012FAF
:1004F00001D0022F16D187684FEA420805FA08FC9E
:1005000027EA0C07D1F80CC00CFA08FC4CEA070CDF
:10051000C0F808C04768B7430E79C6F30016964086
:100520003E4346600E79F643B6070DD0C7685600C5
:1005300005FA06FC27EA0C07D1F808C00CFA06FCFD
:100540004CEA070CC0F80CC00E7906F00306022E28
:1005500010D1D60800EB8608D8F8206057074FEA7C
:10056000D76C09FA0CF7BE430F6907FA0CF737434B
:10057000C8F8207006684FEA420C05FA0CF7BE4333
:100580000F7907F0030707FA0CF7374307604E6847
:1005900016F4403F6DD03B4E376847F480473760D4
:1005A000366822F0030706F480460096364E07EBC5
:1005B000060CDCF8086897073F0F09FA07F826EAE7
:1005C0000806DFF8C880404503D14FF000081EE060
:1005D0004FE0DFF8BC80404502D14FF0010816E043
:1005E000DFF8B080404502D14FF002080FE0DFF89D
:1005F000A880404502D14FF0030808E0DFF89C8056
:10060000404502D14FF0040801E04FF0070808FA16
:1006100007F848EA0608CCF80888DAF80060574678
:10062000D1F804C09E435FEACC2C00D51E433E6047
:10063000DBF800605F46D1F804C09E435FEA8C2C73
:1006400000D51E433E60DEF800607746D1F804C056
:100650009E435FEA8C3C00D51E433E60084F083F36
:100660003E68D1F804C09E435FEACC3C00D51E43EF
:100670003E60521C102AFFF431AFBDE8F88F000035
:10068000083C014044380240003001400000024074
:100690000004024000080240000C0240001002402A
:1006A000426921EA02030A4043EA0241816170473C
:1006B0000AB1816170470904FBE7000001488068C6
:1006C0007047000028000020024881680278114429
:1006D00081607047280000200B4810B5016841F484
:1006E00000710160016841F480610160016841F4BA
:1006F00080710160032000F06FF80F2000F006F811
:1007000000F024F8002010BD003C024070B50D4DF3
:1007100004464FF47A712878B1FBF0F00A49096871
:10072000B1FBF0F000F0EAFA48B9102C07D2002231
:100730002146501E00F030F800206C6070BD012092
:1007400070BD000028000020340000200A4808B5D1
:10075000016841F480410160006800F4804000902D
:100760000548001F016841F080510160006800F0F9
:100770008050009008BD000044380240002809DB8A
:1007800000F01F02012191404009800000F1E020AB
:10079000C0F8001170470000F0B40E4B1B680C4607
:1007A000C3F30223C3F10705042D00D90425191D45
:1007B000072901D2002300E0DB1E012606FA05F11D
:1007C000491E214099409E40761E16403143F0BCA0
:1007D00001F0B1BB0CED00E0064900F0070208682B
:1007E0004FF6FF03184040EA0220034A1043086016
:1007F000704700000CED00E00000FA052DE9F0471D
:100800000E46050065D0DFF81481D8F80000F7B275
:1008100000F00700B04207D288F80070D8F8000056
:1008200000F00700B04254D128683D4C810712D532
:10083000400703D5206840F4E05020602878000786
:1008400003D5206840F4604020602068A96820F04B
:10085000F000084320602878C0072DD03049686830
:100860000839012812D0022813D0032811D00968B2
:10087000890700292DDA216821F003010143216055
:10088000FFF71CFF814641F2883A0EE009688903B0
:10089000EFE709688901ECE7FFF710FFA0EB09011A
:1008A000514502D90320BDE8F0872068696800F04F
:1008B0000C00B0EB810FEFD1D8F80010404601F0EA
:1008C0000701B14207D90770006800F00700B04285
:1008D00001D00120E7E72878400705D52068E968BE
:1008E00020F4E050084320602878000706D52068EF
:1008F000296920F4604040EAC100206000F018F847
:100900002168084AC1F30311515CC84006490860D8
:1009100006480068FFF7FAFE0020C4E7003C0240EA
:100920000838024092260008340000202C000020E5
:10093000154810B5006810F00C02144813D041108F
:10094000042A0FD0082A0ED10F4C241F22682368D6
:1009500002F03F025B0207D52068C0F38810A0FBBD
:10096000010106E0084610BD2168C1F38811A1FB12
:1009700000010023FFF780FC2168C1F30141491CFD
:100980004900B0FBF1F010BD083802400024F4002B
:100990002DE9F84F04006ED02078DFF84C93C007A3
:1009A000A9F104054AD009F104000168C1F38101ED
:1009B000012908D00068C0F3810002280AD1D9F8C3
:1009C0000000400206D52868800337D560680028FB
:1009D000E1D033E06068B0F5803F10D0B0F5A02FD3
:1009E000286810D020F480302860286820F4802007
:1009F00028606068A8B1FFF761FE06460DE0286830
:100A000040F48030F4E740F480202860F7E700BF2E
:100A1000FFF754FE801B642873D828688003F7D53D
:100A20000CE0FFF74BFE064605E000BFFFF746FE71
:100A3000801B6428F0D828688003F7D42078DFF87A
:100A4000AC8280074FF0000A3ED5A748001D016820
:100A500011F00C0F08D00068C0F3810002280BD100
:100A6000D9F80000400207D42868800716D5E0684E
:100A7000012800D112E033E1E068B8B10120C8F8E4
:100A80000000FFF71BFE064605E000BFFFF716FE5D
:100A9000801B0228C0D828688007F7D528682169FC
:100AA00020F0F80040EAC10028600DE0C8F800A07E
:100AB000FFF704FE064604E0FFF700FE801B022855
:100AC0001FD828688007F7D42078000722D5864FE2
:100AD00087486169703771B101210160FFF7EEFD50
:100AE000064604E0FFF7EAFD801B022809D83868B3
:100AF0008007F7D50EE0C0F800A0FFF7DFFD06463F
:100B000005E082E0FFF7DAFD801B02287DD8386817
:100B10008007F7D42078400768D5DFF8CCB10027EC
:100B20000BF13C0BDBF80000C0000BD4DBF800102D
:100B300041F08051CBF80010DBF80000012700F0F5
:100B4000805000906B4E3068C00510D4306840F47F
:100B500080703060FFF7B2FD009005E0FFF7AEFD5A
:100B60000099401A022850D83068C005F6D55E4E6C
:100B7000A0686C3601280FD00528306810D020F00E
:100B800001003060306820F004003060A068B8B127
:100B9000FFF794FD00900FE0306840F00100F4E7AB
:100BA00040F004003060F7E7FFF788FD0099411A34
:100BB00041F28830814266D830688007F4D50EE073
:100BC000FFF77CFD009007E0FFF778FD0099411AE0
:100BD00041F28830814256D830688007F4D42FB172
:100BE000DBF8001021F08051CBF80010A069C8B3E9
:100BF0003D49091D0968C1F3810102294AD0022833
:100C0000504607D0C8F8600000E03CE0FFF756FD12
:100C100004463BE04746C8F86000FFF74FFD064634
:100C200005E000BFFFF74AFD801B02282BD828688B
:100C30008001F7D4D4E907010843A16A2E4A490884
:100C400002EB0141626A41EA8211084394F82C10D8
:100C500040EA0161C9F8001001203866FFF72EFD57
:100C6000044606E03EE000BFFFF728FD001B022817
:100C700009D828688001F7D534E000BFFFF71EFDD2
:100C8000001B022802D90320BDE8F88F28688001E4
:100C9000F4D427E00128F7D0D9F80000E26900F485
:100CA000800191421CD1226A00F03F01914217D18C
:100CB00047F6C071626A0140B1EB821F10D1A26A8F
:100CC0004FF0FF3300F4403103EB5202B1EB024F1F
:100CD00006D194F82C1000F07060B0EB016F01D0D9
:100CE0000120D1E70020CFE704380240000047424E
:100CF000800E4742007000400000FFFF10B5401E0C
:100D0000B0F1807F01D3012010BD4FF0E02460617D
:100D10000F21601701F00FF90020A061072020616A
:100D2000002010BD7047704770B590F83C20012A34
:100D30002CD0012480F83C40022280F83D2003683A
:100D40005A689D6822F070060A6832435A60104B58
:100D500002689A420ED0B2F1804F0BD00D4B9A42EE
:100D600008D00D4B9A4205D00C4B9A4202D00C4B46
:100D70009A4204D1496825F080031943916080F8B4
:100D80003D40002180F83C10084670BD022070BD37
:100D9000000001400004004000080040000C00403A
:100DA0000040014010B5040003D094F83D0010B19C
:100DB00007E0012010BD002084F83C00204600F030
:100DC0001FF8022084F83D00211D206800F06EFE0F
:100DD000012084F8460084F83E0084F83F0084F83F
:100DE000400084F8410084F8420084F8430084F80D
:100DF000440084F8450084F83D00002010BD000048
:100E000008B501681748814212D11748016841F0BE
:100E1000010101600068002200F00100009011460D
:100E20001920FFF7B9FCBDE808401920FFF7A6BC60
:100E30000D48001FB1F1804F0BD00C4A914207D1F1
:100E4000016841F002010160006800F002000090BA
:100E500008BD016841F001010160006800F0010077
:100E6000F5E7000000000140443802400004004063
:100E700090F83D10012901D001207047022180F82F
:100E80003D100168CA6842F00102CA6000680E495C
:100E900088420ED0B0F1804F0BD00C49884208D068
:100EA0000B49884205D00B49884202D00A49884242
:100EB00004D1816801F00701062903D0016841F0DF
:100EC0000101016000207047000001400004004063
:100ED00000080040000C00400040014070B504468E
:100EE00090F83C000025012817D0012684F83C60CA
:100EF000022084F83D002068826822F0770222F404
:100F00007F4282600868502838D00DDC20284FD0FE
:100F100005DC90B3102811D14AE0022070BD3028C2
:100F200046D040280AD13BE060282FD070280DD051
:100F3000B0F5805F03D0B0F5005F12D0012584F8D2
:100F40003D60002084F83C00284670BDCB68D1E9A4
:100F50000121206800F003FE2068816841F07701DC
:100F600009E0CB68D1E90121206800F0F8FD206894
:100F7000816841F480418160E1E719E0CA6849680D
:100F8000206800F0B5FF5021206806E0CA68496873
:100F9000206800F0BEFF6021206800F0A1FFCEE7CE
:100FA000CA684968206800F0A3FF40212068F4E780
:100FB000226801461046F0E72DE9F0410D46040095
:100FC00003D094F83D0018B108E00120BDE8F0819D
:100FD000002084F83C00204600F040F8022084F80D
:100FE0003D002068816844F2070291438160211D21
:100FF000206800F05BFD226890689169166A2B6892
:10100000AF69034340F20330814341EA0721A868F6
:10101000EF6908434FF6FC418843E96840EA07203E
:10102000014328692F6A000140EA073008436968D4
:101030006D6926F0AA0646EA0515294393602268E1
:10104000906154F8460B0162012004F81F09E07515
:101050002076E0762077A0750020B7E710B586B03F
:10106000044614216846FFF77EF917492068884234
:1010700027D116480021026842F00402026000688D
:1010800000F00400059011481038026842F0020296
:1010900002600068012200F002000590C02000906C
:1010A0000220CDE90102CDE9031069460848FFF7A7
:1010B00007FA002211461E20FFF76EFB1E20FFF7E5
:1010C0005DFB06B010BD0000000800404038024043
:1010D0000004024070B590F83E60044690F83F501E
:1010E00090F8423090F84320022021B104290ED01C
:1010F000012E1BD114E0012E18D1012B16D184F83A
:101100003E0084F8420001220021206820E0012DE9
:101110000CD1012A0AD184F83F0084F8430014E07E
:10112000012D03D1012B01D1012A01D0012070BD75
:1011300084F83E0084F83F0084F8420084F84300BD
:1011400001220021206800F0FDFC0122042120681A
:1011500000F0F8FC2068016841F001010160002006
:1011600070BD704770B50446006801694FF0000516
:10117000C943890715D4C168C943890711D4E91E39
:10118000016101202077206880698007204602D015
:10119000FFF7E7FF04E000F0D7F8204600F069F918
:1011A000257720680169C943490717D4C168C94335
:1011B000490713D46FF004010161022020772068F1
:1011C000806910F4407F204602D0FFF7CAFF04E098
:1011D00000F0BAF8204600F04CF925772068016944
:1011E000C943090716D4C168C943090712D46FF06F
:1011F00008010161042020772068C069800720462B
:1012000002D0FFF7AEFF04E000F09EF8204600F0A9
:1012100030F9257720680169C943C90617D4C16828
:10122000C943C90613D46FF010010161082020776B
:101230002068C06910F4407F204602D0FFF791FF7C
:1012400004E000F081F8204600F013F925772068CB
:101250000169C943C90708D1C168C943C90704D195
:10126000891E0161204600F05DF920680169C943CB
:10127000090609D4C168C943090605D46FF0800185
:1012800001612046FFF74EFD20680169C943490608
:1012900009D4C168C943490605D46FF04001016112
:1012A000204600F07FF920680169C94389060BD404
:1012B000C168C943890607D46FF020010161204647
:1012C000BDE87040FFF72FBD70BD000030B587B09E
:1012D000044614216846FFF746F82568002416489E
:1012E000022103220123B5F1804F15D0134CA542F2
:1012F00010D1046844F004040460006800F00400A5
:10130000059080208DE80B00CDE9032169460C484B
:10131000FFF7D6F807B030BD056845F00205056057
:10132000006800F00200059008208DE8130069466F
:101330000448CDE90323EBE73038024000040040C5
:101340000008024000040240704770B5044690F85F
:101350003C0000260D4601280FD0012084F83C00F7
:101360006AB1042A1DD0082A2FD00C2A3FD00126AA
:10137000002084F83C00304670BD022070BD20681B
:1013800000F038FD2068816941F008018161206822
:10139000816921F004018161206881692A69114312
:1013A00011E0206800F0E6FB2068816941F40061EB
:1013B00081612068816921F480618161206881698F
:1013C0002A6941EA02218161D2E7206800F03AFDF2
:1013D0002068C16941F00801C1612068C16921F03C
:1013E0000401C1612068C1692A69114311E02068C4
:1013F00000F054FD2068C16941F40061C1612068BA
:10140000C16921F48061C1612068C1692A6941EA2A
:101410000221C161ACE710B5040003D094F83D008F
:1014200010B107E0012010BD002084F83C002046E8
:1014300000F01EF8022084F83D00211D206800F015
:1014400035FB012084F8460084F83E0084F83F0014
:1014500084F8400084F8410084F8420084F8430096
:1014600084F8440084F8450084F83D00002010BD55
:101470007047704710B50446022249B104290ED0C6
:10148000082913D094F84100012816D0012010BD7E
:1014900094F83E000128F9D184F83E200FE094F83A
:1014A0003F000128F2D184F83F2008E094F8400082
:1014B0000128EBD184F8402001E084F8412001228A
:1014C000206800F03FFB12492068884203D1426C3B
:1014D00042F400424264206888420ED0B0F1804F4E
:1014E0000BD00C49884208D00B49884205D00B49E3
:1014F000884202D00A49884204D1816801F007017C
:10150000062903D0016841F001010160002010BDEF
:10151000000001400004004000080040000C0040B2
:101520000040014010B5044600681549884201D1C9
:1015300000F09EF91349206888421FD112480078B4
:1015400000281BD020211148FFF7AAF8FEF782FFE0
:101550000F4C9FED100A206000F024FA0E48D4EDE5
:10156000000A90ED000AF8EEE00A0C4800F09AF943
:10157000002000F045FB0A493220086010BD000041
:101580000008004000000140000000200000024070
:10159000200000200000484350000020B000002040
:1015A000380400407047FEE72DE9F04387B014216E
:1015B0006846FEF7D8FE28480024016841F0800103
:1015C0000160016801F080010591016841F00101AD
:1015D0000160016801F001010591016841F0040119
:1015E0000160016801F004010591016841F0020108
:1015F00001600068DFF8648000F0020005900022BE
:101600004FF484614046FFF753F8DFF8549000220E
:1016100020214846FFF74CF8202601250096CDE909
:101620000154694640460394FEF74AFFA802022788
:10163000CDE90005CDE9024769464046FEF740FF87
:1016400003970096CDE9015469464846FEF738FFF6
:1016500007B0BDE8F08300003038024000000240CF
:101660000004024010B586B000241848009401948C
:1016700002940394049414490594016040F2E73104
:10168000C0E9011440F28F61C0E903144461846130
:10169000FFF788FB08B1FEF711FF4FF48050009070
:1016A00069460A48FFF71AFC08B1FEF707FF0494E1
:1016B00004A906480594FFF737FB002801D0FEF780
:1016C000FDFE06B010BD000000000140E00000205B
:1016D00010B58EB000240794089409940A940B94D2
:1016E0001C2168460C94FEF73EFE1D484FF08041D9
:1016F00001605321C0E901146321C0E9031484612E
:10170000FFF750FB08B1FEF7D9FE4FF48050079069
:1017100007A91348FFF7E2FB08B1FEF7CFFE104818
:10172000FFF779FE08B1FEF7C9FE0B940BA90C4830
:101730000C94FFF7F9FA08B1FEF7C0FE6020CDE97E
:10174000000402940422694605480494FFF7FDFD55
:1017500008B1FEF7B3FE0248FFF7B8FD0EB010BDAA
:101760002801002010B58EB0002407940894099435
:101770000A940B941C2168460C94FEF7F4FD1F4854
:101780001D49016040F24731C0E9011440F2E731E0
:10179000C0E903148461FFF705FB08B1FEF78EFE74
:1017A0004FF48050079007A91448FFF797FB08B142
:1017B000FEF784FE1148FFF72EFE08B1FEF77EFE0D
:1017C0000B940BA90D480C94FFF7AEFA08B1FEF785
:1017D00075FE6020CDE900040294042269460748A2
:1017E0000494FFF7B2FD08B1FEF768FE0348FFF767
:1017F0006DFD0EB010BD000000040040700100201F
:1018000010B58CB024216846FEF7ADFD00241648C3
:10181000099414490A94C0E90014C913C0E90241AB
:10182000046184610320CDE900040120CDE90204B4
:101830000F210491CDE90540CDE9074169460A48E9
:10184000FFF7BAFB08B1FEF739FE099409A906486B
:101850000A94FFF769FA002801D0FEF72FFE0CB0BA
:1018600010BD000000080040B8010020FEE7FEE7C0
:10187000054800680549C206086801D5401E00E019
:10188000401C08607047000000080040380000203D
:1018900080ED030A80ED0A2AC0ED092AC0EC030A94
:1018A0007047000070EE600AC0ED040A90ED000A77
:1018B00020EE801A80ED061A90ED050AD0ED021A8E
:1018C00090ED032A30EEC00A20EE210ADFED2D1A3A
:1018D00060EE212A82EE820A80ED080AD0ED012A0C
:1018E00031EE000A22EE822A22EE202AC2EE212ABE
:1018F000D0ED071A72EEA11AC0ED071A30EE210AD8
:1019000090ED0B1A30EE010A80ED0B0AC0ED050ACE
:10191000D0ED0A0AF5EEC00AF1EE10FA17D0B5EED6
:10192000C00AF1EE10FA04DDB4EEE00AF1EE10FAAE
:101930000BD3F1EE600AF4EEC00AF1EE10FA06D213
:10194000B5EEC00AF1EE10FA01D2C0ED0B0A90ED2F
:10195000090AB5EEC00AF1EE10FA0FD0D0ED0B0A6D
:10196000B4EEE00AF1EE10FA06D3B1EE400AF4EE5E
:10197000C00AF1EE10FA01D280ED0B0A90ED0B0ACD
:101980007047000000007A449FED040A80ED040ACD
:1019900080ED0B0A80ED050A704700000000000092
:1019A000704700009FED101AB5EEC00A0F48F0EE28
:1019B000411AF1EE10FA80ED010A02DDF0EE610A43
:1019C0000FE0DFED0B0AB5EEC00AF1EE10FA06D318
:1019D00090ED002AB5EEC02AF1EE10FAEED2B0EE8C
:1019E000601A024800F02CB90000C84250000020E4
:1019F0000000C8C27047000010B5FEF765FE02483F
:101A00000168491C016010BD2400002070B5194C0C
:101A10002068194A10F00C01184804D05510042908
:101A200003D0082903D002601BE0056019E01149CA
:101A3000091F0B68C3F380560B6803F03F0316B110
:101A4000B5FBF3F201E0B2FBF3F20B680968C3F3F4
:101A500088135A43C1F30141491C4900B2FBF1F11B
:101A600001602168064AC1F30311515C0268CA4053
:101A7000026070BD083802400024F40034000020E9
:101A8000922600080248016841F470010160704725
:101A900088ED00E00148FFF765BB0000E000002092
:101AA0000148FFF75FBB0000B8010020F0B50268F5
:101AB0001D4B1E4C9F031E4D1E4E984207D0B84230
:101AC00005D0A04203D0A84201D0B04204D122F0F8
:101AD000700C4A6842EA0C02984210D0B8420ED00C
:101AE000A0420CD0A8420AD0B04208D0124CA0426A
:101AF00005D0124CA04202D0114CA04203D122F4D6
:101B00004074CA6822434C6922F08002224302607A
:101B10008A68C2620A688262984201D109690163D7
:101B200001214161F0BD00000000014000040040BF
:101B300000080040000C004000400140004401400B
:101B40000048014010B501F01F030121046A9940CB
:101B50008C430462016A9A401143016210BD10B5C2
:101B6000846842EA032224F47F440A4322438260C9
:101B700010BD000030B5026A22F010020262026A53
:101B8000436884690D6824F4E64444EA05248D68BA
:101B900022F0200242EA05120B4DA8420ED1CD6878
:101BA00022F0800242EA05124D6923F4406343EAC1
:101BB00085038D6922F0400243EA85034360846116
:101BC00049688163026230BD00000140FEE7000009
:101BD00010B504210748FFF74DFC002220210648DC
:101BE000FEF766FDBDE8104000224FF48061034817
:101BF000FEF75EBD28010020000402400000024004
:101C000070B5041E4FF0000201DD012500E0002543
:101C100020210848FEF74CFD2A464FF48061064813
:101C2000FEF746FD002C00DA644204480068846335
:101C300070BD0000000402400000024028010020A6
:101C400070B504462DED048BB0EE408AF0EE418A6B
:101C5000B0EE609A90ED000A00F07DF9F0EE409A47
:101C6000B0EE480A00F077F9F4EEC09A344DF1EE88
:101C700010FA27D219EE100A00F090FC95ED001B27
:101C800053EC112B00F0A2FA41EC190B206800F084
:101C900085FC53EC192B00F0F1F900F0BDF900EED2
:101CA000100A84ED000A00F056F9B0EE409AB0EE4A
:101CB000480A00F050F9B4EEC09AF1EE10FA01DBD8
:101CC00084ED008A94ED000A00F045F9B0EE409AE8
:101CD000B0EE480A00F03FF9B4EEC09AF1EE10FA07
:101CE00024DD18EE900A00F059FC95ED001B53EC32
:101CF000112B00F06BFA41EC190B206800F04EFC40
:101D000053EC192B00F060FB00F086F900EE100A8E
:101D1000F5EEC08A84ED000AF1EE10FA09DBB4EEAC
:101D2000C80AF1EE10FA01D884ED008ABDEC048BEC
:101D300070BDB4EEC80AF1EE10FAF5DAF6E700006D
:101D40004800002030B593B030216846FEF70BFB09
:101D500014210CA8FEF707FB1D480025016841F07F
:101D600080510160006800F08050119019480168AE
:101D700021F4404141F4004101600068022400F474
:101D80004040119001200090000401908001CDE9B5
:101D9000064008AA0420542182E813000B906846EC
:101DA000FEF7F6FD08B172B6FEE70CA90F2081E838
:101DB00031004FF48050CDE90F0502210CA8FEF749
:101DC0001DFD002801D072B6FEE713B030BD000043
:101DD00040380240007000409FED050A022180ED6E
:101DE000000A80ED010A01740A2141617047000078
:101DF0000000000030B5026A22F001020262026AAD
:101E00004368846924F073050C682C4322F00205B2
:101E10008A682A430A4DA8420BD122F00805CA68F5
:101E200023F440732A434D6922F004021D438B6959
:101E30002B434360846149684163026230BD000006
:101E40000000014030B5026A22F480720262036A27
:101E50004268C46923F4007324F073050C682C43B2
:101E60008D6843EA05230C4DA8420ED1CD6823F4BA
:101E7000006343EA05234D6922F4405242EA051209
:101E80008D6923F4806342EA05124260C4614968A7
:101E9000C163036230BD00000000014030B5026A3A
:101EA00022F480520262046A4268C3690D6823F416
:101EB000E64343EA05238D6824F4005444EA0534DC
:101EC000064DA84204D14D6922F4804242EA8512AF
:101ED0004260C36149680164046230BD0000014092
:101EE000826822F070020A4342F007018160704765
:101EF00010B5036A046A24F001040462846924F0C2
:101F0000F00444EA021423F00A020A4384610262E4
:101F100010BD10B5036A23F0100303628369046ADD
:101F200023F4704343EA023224F0A00343EA011190
:101F30008261016210BD0907090E002804DB00F16F
:101F4000E02080F80014704700F00F0000F1E0205E
:101F500080F8141D7047B0EEC00A70470148FFF7C3
:101F60003BBF000058000020FEF7B6FBFFF7EAFE7B
:101F7000FFF71AFBFFF776FBFFF7AAFBFFF7F2FB71
:101F8000FFF73EFCFFF742FD1A481B490068B0FB13
:101F9000F1F0401EB0F1807F0AD24FF0E02148619D
:101FA000164AF02082F8140D00208861072008618D
:101FB0001348FEF75DFFFFF70BFEFEF767FA0421FB
:101FC0001048FFF757FA1049322008600F48FFF712
:101FD000DBFC9FED0F1AF3EE0E2ADFED0E0AB0EEDA
:101FE000412AF0EE411AB3EE040A0848FFF750FC0C
:101FF000FEE700003400002040420F000FE000E048
:10200000E00000207001002038040040B0000020F3
:1020100000000000CDCC4C3D21F00042A2F1605206
:10202000B2F5801F01F0004328BFD2F17F6C0BD9BD
:102030005FEA001C43EAC20242EB507018BF7047CF
:1020400028BF20F001007047B2F5801FBCBF1846C2
:1020500070474FEA410C1CF5001F02D2084600F001
:1020600013BB70B500F05CF900000089FFF7F6BF04
:102070004FF00040A0F580007047000010B591EAD5
:10208000030F48BF83F0004300F1A681841A71EB6F
:10209000030C05D2121943EB0C03001B61EB0C017E
:1020A000DFF824E14FEA1154A4EB135C1EEA430F5E
:1020B00018BF9EEA445F73D023EA0E03DCF1200EC2
:1020C00021EA045143F4801332D322FA0CFE10EBC0
:1020D0000E0023FA0CFE41EB0E01CCF1200E03FAA8
:1020E0000EFE10EB0E0051F10001B1F5801FCCF196
:1020F000200E32D201EB045112FA0EF2BDE810406C
:1021000058BF7047401C38BF5FEA420218BF704793
:10211000002814BF20F0010041F100014FEA410303
:1021200013F5001F38BF7047A1F1C04100F046B958
:10213000012A43EB0302ACF1200CDCF11F0E32BF8D
:102140004FF0000E23FA0CF310EB030041EB0451A7
:10215000B4EB115FD0D0A1EB045101F58011490817
:102160005FEA300001EB04510ED350F1000038BF9C
:1021700012FA0EFE08D1BDE81040C9E7401C38BF76
:102180005FEA4202CAD1C3E7BDE810404FEA41030B
:1021900013F5001F38BF7047A1F1C04100F00EB920
:1021A0009EEA445F08D011EA5E0FBDE8104004BF0C
:1021B00001F0004100207047BDE8104070B500F00C
:1021C000AFF800BF64FBBE3E0000E0FFDFF848C18F
:1021D00070B51CEA111E1EBF1CEA13159EEA0C0FF7
:1021E00095EA0C0F00F06F8081EA030423EA4C1398
:1021F0004EEAD47E21EA4C1141F4801143F480135D
:10220000AE44A1FB024CA0FB0365AEF17F7E361904
:1022100055EB0C05A1FB034C4CF10003A0FB021C89
:1022200016EB0C06654153F10003094218BF46F056
:10223000010613F4007F0BD14FEA03314FEA05305A
:10224000340341EA155140EA16506FF003020AE0E8
:102250004FEAC3214FEAC520F40241EA555140EA52
:1022600056506FF0020202EB2E4201EB025585EA56
:10227000CE710AD05FEA440C18BF24F0004450F13C
:10228000000041F1000120EAD47040F2FE7C62457A
:1022900000D270BDA84214BF4FF080444FF04044BC
:1022A000002E08BF0024BEF1806FA8BFA1F1C0417D
:1022B000BDE8704080F282804FF0000001F1C04123
:1022C00001F0004170479EEA0C0F0CEA131518BF8D
:1022D00095EA0C0F06D04FF0000081EA030E0EF0D5
:1022E000004170BD00F01CF88900013E00F007B805
:1022F00000F009B84FEA430C5FEA5C5C08D081EA61
:10230000030100F05BB84FEA410C5FEA5C5CF6D178
:102310004FF00000014970470000FF070000F87F00
:102320000EF1020E2EF0030E5EF8046B364205D459
:10233000012A43EB030515F5001F12D8012841EBD4
:10234000010C1CF5001F0CD80ED14FEAD17C15F5FD
:10235000001F0CEB4C0C0CF1020C08BF4CEBD37CB7
:1023600004E04FF0080C01E04FEAD37C0CEB4C0585
:1023700026FA05F606F00706B6F1040C06D20EEBB7
:10238000860CBDE870404CF0010C6047DFE80CF0B3
:10239000090B02024FF000414FF00000A1F50021AF
:1023A00070BD19461046012851EB010418BFD4F541
:1023B000001484BF002001F0004170BD0808A0F5A2
:1023C00000114FEA3101704710B591EA030F48BF81
:1023D00083F000433FF55AAE841A71EB030C07D229
:1023E00012198CF0004C43EB0C03001B61EB0C0149
:1023F000DFF8A4E14FEA1154A4EB135C1EEA430F8B
:1024000018BF9EEA445F00F0B08023EA6E03524298
:1024100021EA0451C3EB6E0338BF5B1EDCF1200ED2
:1024200025D322FA0CFE10EB0E0043FA0CFE41EB12
:102430000E01CCF1200E03FA0EFE10EB0E0051F14E
:102440000001CCF1200E29D412FA0EF201EB045156
:10245000BDE8104058BF7047401C1CBFB2F1004F90
:10246000704700280CBF491C20F00100704712EB98
:10247000020E43EB030218BF4FF0010E4EEA420278
:10248000ACF1200CDCF11E0E54D943FA0CFE10EB1B
:102490000E0051F1FF31CCF11E0ED5D50EF1010E1B
:1024A00012FA0EFE404141EB010101EB445C5FEA90
:1024B0005C5C10D910EBDE7001EB045138BFBEF14B
:1024C000004FBDE8104018BF704700280CBF491CE2
:1024D00020F00100704730D24FEAD42C11F50011E2
:1024E00024F400641BD0B1FA81F20B3AA41AA41EA2
:1024F000D2F12003914030FA03F31943904001EBED
:10250000CC71002C01EB0451BDE81040A8BF70470E
:1025100001F1C0414FF0000001F000417047B0FAF6
:1025200080F310FA03F100D110BDE41A173C4805FE
:10253000C90AE4E701EB045110BD491001EB045155
:10254000BDE810404FEA300002E04FF00001704754
:102550004A0008BF0042F8D0B2F5001F28BF7047FC
:1025600001F000414FF0000070479EEA445F07D041
:1025700011EA5E0FBDE8104004BF00210020704743
:10258000BDE8104070B5FFF7CBFE00BF40DFF63E60
:1025900083F00041104670470000E0FF43004FEA1F
:1025A000D30C4FEA3C0C43401FBF40070CF1605175
:1025B00013F0FE4F70471CF0006F03D100200CF0A9
:1025C000004170470CF0004343EA507010B540EAF8
:1025D000CC0000F00EF800BF000000924FEA0001AE
:1025E000FFF7ECBE4FF000414FF00000A1F50021D5
:1025F00070470EF1020E2EF0030E5EF8044B2442DB
:1026000004D44FEA4102B2F17F4F11D84FEA4003A0
:10261000B3F17F4F0CD80ED14FEAD07CB2F17F4F8F
:102620000CEB4C0C0CF1020C08BF4CEBD17C04E021
:102630004FF0080C01E04FEAD17C0CEB4C0324FA7C
:1026400003F404F00704B4F1040C06D20EEB840C7E
:10265000BDE810404CF0010C6047DFE80CF00708C3
:1026600002024FF00040A0F5800010BD0846420075
:1026700018BFD2F1807288BF00F0004010BD4FF04B
:102680004070E1EE100A7047FF2141EAD050C005CA
:10269000704700000000000000000102030406076C
:1026A00008090000C82600080000002058000000AB
:1026B000D00100082027000858000020080800006A
:1026C000EC01000899F8FFFF000000000000000086
:1026D00000000000000000000000000000000000FA
:1026E00000000000000000000000000000000000EA
:1026F0000100000010000000000000000024F400B1
:1027000000000000000000000000000000000000C9
:102710009A9999999999B93F00000000000000002A
:040000050800019559
:00000001FF
