:020000040800F2
:10000000200900203902000813220008E71E00081A
:1000100011220008A9040008792600080000000049
:1000200000000000000000000000000001240008A3
:100030001D050008000000009123000805240008A9
:10004000530200085302000853020008530200083C
:10005000530200085302000853020008530200082C
:10006000530200085302000853020008530200081C
:10007000530200085302000853020008530200080C
:100080001105000853020008530200080000000098
:100090000000000000000000000000005302000803
:1000A00053020008A124000853020008530200086C
:1000B0005302000853020008AD2400085302000850
:1000C00053020008530200085302000853020008BC
:1000D00053020008530200086D26000800000000CB
:1000E00053020008530200085302000800000000F9
:1000F00000000000000000000000000053020008A3
:1001000000000000530200085302000853020008D8
:1001100000000000000000000000000000000000DF
:10012000530200085302000853020008530200085B
:100130005302000800000000000000000000000062
:100140000000000000000000000000005302000852
:10015000530200085302000853020008530200082B
:1001600053020008530200080000000000000000D5
:10017000000000000000000000000000000000007F
:100180000000000053020008000000000000000012
:100190005302000800F002F800F03EF80AA090E8D0
:1001A000000C82448344AAF10107DA4501D100F032
:1001B00033F8AFF2090EBAE80F0013F0010F18BFC1
:1001C000FB1A43F0010318470034000020340000FC
:1001D000103A24BF78C878C1FAD8520724BF30C873
:1001E00030C144BF04680C60704700000023002445
:1001F00000250026103A28BF78C1FBD8520728BF37
:1002000030C148BF0B6070471FB503F0C2F900F062
:10021000D5F81FBD10B510BD00F0E2F81146FFF78C
:10022000F3FF02F0E1FD00F000F903B4FFF7F2FF85
:1002300003BC00F007F9000009488047094800475F
:10024000FEE7FEE7FEE7FEE7FEE7FEE7FEE7FEE786
:10025000FEE7FEE704480549054A064B70470000E3
:1002600091240008950100082003002020090020A7
:10027000200500202005002053EA020C00F06980D0
:100280002DE9F04B4FF00006002B1FBFB3FA83F5AA
:1002900003FA05F424FA05F65E4012BF1643B2FADB
:1002A00082F502FA05F4C5F120051EBF22FA05FC0D
:1002B00044EA0C04203556EA044C4FEA144418BFB3
:1002C000641C4FF000084FF00009904271EB030CE2
:1002D00039D3002919BFB1FA81F701FA07F6B0FA4C
:1002E00080F700FA07F6C7F120071EBF20FA07FCC7
:1002F00046EA0C062037B6FBF4FCA7EB0507103FD7
:1003000007F01F0BCBF120060CFA0BFB2CFA06F6BC
:1003100044BFB3460026202FA4BF5E464FF0000B1B
:100320005BEA060C08BF4FF0010B19EB0B09ABFBA6
:10033000027C48EB0608C01B06FB02CC0BFB03CC7F
:1003400071EB0C01C1E70B46024641464846BDE849
:10035000F08B13B54FF000004FF00001AFF30080B9
:10036000BDE81C4070474FF0000200B513469446AC
:100370009646203922BFA0E80C50A0E80C50B1F1FD
:100380002001BFF4F7AF090728BFA0E80C5048BF11
:100390000CC05DF804EB890028BF40F8042B08BFAF
:1003A000704748BF20F8022B11F0804F18BF00F8AB
:1003B000012B7047704770477047000070B5064CBE
:1003C0007C44064D7D4403E0206820448047241D82
:1003D000AC42F9D170BD000024320000243200008C
:1003E000754600F02BF8AE4605006946534620F0EE
:1003F0000700854618B020B5FFF72CFFBDE8204068
:100400004FF000064FF000074FF000084FF0000BD0
:1004100021F00701AC46ACE8C009ACE8C009ACE883
:10042000C009ACE8C0098D46704710B50446AFF36B
:1004300000802046BDE81040FFF7F7BE0048704737
:10044000BC02002001491820ABBEFEE726000200D6
:10045000704700000A4801680A48026841EAC23150
:10046000416041688268891A4EF6602251434FF418
:10047000A01291FBF2F1C16041688160C0687047D1
:10048000240800403000002010B5054800F006FFA9
:100490003C21034801F034F802490020086010BDF7
:1004A000D001002030000020FEE7000010B5192820
:1004B00001DB192004E06FF01801884200DC0846D7
:1004C00002F0F6FD9FED0C1B53EC112B02F008FE21
:1004D0009FED0B1B53EC112B02F042FD02F00EFDC1
:1004E00000EE100A0848094980ED000ABCEEC00A77
:1004F00010EE100A086010BDF6285C8FC2F50040AF
:10050000000000000060624040000020380400400D
:10051000014800F061B800005C020020704772B62C
:10052000FEE72DE9F0410446876D00F0BDFA06466E
:1005300094F835000025022806D08020606584F8F4
:1005400034500120BDE8F0812068016821F01601D7
:1005500001602068416921F080014161206C08B987
:10056000A06C20B12068016821F0080101602068BA
:10057000016821F0010101600CE000F095FA801B98
:10058000052807D920206065032084F8350084F809
:100590003450D7E720680068C007EED194F85C10AB
:1005A0003F208840B860012084F8350084F834503A
:1005B0000020C7E790F83510022903D0802141655B
:1005C00001207047052180F835100068016821F08E
:1005D00001010160002070472DE9F84304464FF007
:1005E0000009CDF8009063484FF41651A56D0068DE
:1005F000B0FBF1F72E6894F85C10082000FA01F1C6
:1006000031420FD021680A6852070BD50A6822F0E0
:1006100004020A6094F85C108840A860606D40F0A5
:100620000100606594F85C104FF0010808FA01F0D1
:10063000304208D021684969090604D5A860606D78
:1006400040F00200606594F85C100420884030425D
:1006500008D021680968890704D5A860606D40F05A
:100660000400606594F85C1010208840304218D077
:1006700021680968090714D5A86020680168490342
:1006800004D50068000308D5A16C07E00168C9051E
:1006900003D4016821F008010160216C09B12046F2
:1006A000884794F85C1020208840304231D021687F
:1006B0000968C9062DD5A86094F83500052820687A
:1006C000016806D0490347D5006800031DD4616C5A
:1006D0001CE021F0160101602068416921F08001D1
:1006E0004161206C08B9A06C20B12068016821F03C
:1006F0000801016094F85C103F208840A86084F8ED
:10070000358084F83490216D1FE0E16B09B12046FB
:100710008847606D00282BD0606DC00714D005207D
:1007200084F835002068016821F00101016000981B
:10073000401C0090B84203D820680068C007F6D17A
:1007400084F8358084F83490E16C002910D001B031
:100750002046BDE8F04308470168C905D5D40168C3
:1007600021F01001016084F8358084F83490CCE7E2
:10077000BDE8F8832C0000202DE9F041044600F08C
:1007800093F906465CB1022084F83500002584F810
:1007900034502068016821F0010101600DE0012062
:1007A000BDE8F08100F080F9801B052805D92020E4
:1007B0006065032084F83500F2E720680068C00710
:1007C000F0D12268116820480140D4E901031843A0
:1007D000D4E903363343184363691843A3691843C4
:1007E000E3691843236A18430843616A042903D163
:1007F000D4E90B1319430843106020684069666A06
:1008000020F0070130460E43012704280CD1A06ACE
:100810000643E06A40B1204602F058F820B140207B
:10082000606584F83570BAE720684661204602F0BA
:1008300077F894F85C203F2191408160656584F8E9
:1008400035700020ACE700003F8010F02DE9F0414A
:100850000446866D90F83400002501280DD0012053
:1008600084F8340094F835700020012F07D084F804
:10087000340002252846BDE8F0810220FBE702276C
:1008800084F835706065204602F00CF894F85C102E
:100890003F208840B0602068016841F01601016087
:1008A000206C20B12068016841F0080101602068D7
:1008B000016841F001010160DCE700002DE9F84F1B
:1008C000DFF8B8A10022012403254FF00F090AF137
:1008D000040BAAF1040E00BF0B6804FA02F63340C1
:1008E000B34273D10F7907F00307012F01D0022F14
:1008F00016D187684FEA420805FA08FC27EA0C0778
:10090000D1F80CC00CFA08FC4CEA070CC0F808C07F
:100910004768B7430E79C6F3001696403E434660DB
:100920000E79F643B6070DD0C768560005FA06FCE7
:1009300027EA0C07D1F808C00CFA06FC4CEA070CB1
:10094000C0F80CC00E7906F00306022E10D1D608AE
:1009500000EB8608D8F8206057074FEAD76C09FAF1
:100960000CF7BE430F6907FA0CF73743C8F820703D
:1009700006684FEA420C05FA0CF7BE430F7907F000
:10098000030707FA0CF7374307604E6816F4403F39
:100990006DD03B4E376847F480473760366822F0A9
:1009A000030706F480460096364E07EB060CDCF88B
:1009B000086897073F0F09FA07F826EA0806DFF8E4
:1009C000C880404503D14FF000081EE04FE0DFF83B
:1009D000BC80404502D14FF0010816E0DFF8B0803E
:1009E000404502D14FF002080FE0DFF8A8804045F3
:1009F00002D14FF0030808E0DFF89C80404502D1A7
:100A00004FF0040801E04FF0070808FA07F848EA39
:100A10000608CCF80888DAF800605746D1F804C018
:100A20009E435FEACC2C00D51E433E60DBF800609D
:100A30005F46D1F804C09E435FEA8C2C00D51E436C
:100A40003E60DEF800607746D1F804C09E435FEA5E
:100A50008C3C00D51E433E60084F083F3E68D1F8ED
:100A600004C09E435FEACC3C00D51E433E60521C4E
:100A7000102AFFF431AFBDE8F88F0000083C0140B8
:100A800044380240003001400000024000040240AF
:100A900000080240000C0240001002400AB18161CF
:100AA00070470904FBE700000148806870470000B8
:100AB000200000200248816802781144816070475C
:100AC000200000200B4810B5016841F4007101605E
:100AD000016841F480610160016841F48071016046
:100AE000032000F06FF80F2000F006F800F024F863
:100AF000002010BD003C024070B50D4D04464FF47F
:100B00007A712878B1FBF0F00A490968B1FBF0F07E
:100B100000F00AFB48B9102C07D200222146501ED3
:100B200000F030F800206C6070BD012070BD000046
:100B3000200000202C0000200A4808B5016841F47C
:100B400080410160006800F4804000900548001F6B
:100B5000016841F080510160006800F08050009011
:100B600008BD000044380240002809DB00F01F02E5
:100B7000012191404009800000F1E020C0F80011FF
:100B800070470000F0B40E4B1B680C46C3F3022301
:100B9000C3F10705042D00D90425191D072901D229
:100BA000002300E0DB1E012606FA05F1491E214064
:100BB00099409E40761E16403143F0BC02F0FBB8CF
:100BC0000CED00E0064900F0070208684FF6FF034D
:100BD000184040EA0220034A1043086070470000B2
:100BE0000CED00E00000FA052DE9F0470E46050087
:100BF00065D0DFF81481D8F80000F7B200F00700E4
:100C0000B04207D288F80070D8F8000000F0070062
:100C1000B04254D128683D4C810712D5400703D516
:100C2000206840F4E05020602878000703D5206851
:100C300040F4604020602068A96820F0F00008437C
:100C400020602878C0072DD030496868083901280D
:100C500012D0022813D0032811D00968890700296F
:100C60002DDA216821F0030101432160FFF71CFF09
:100C7000814641F2883A0EE009688903EFE7096886
:100C80008901ECE7FFF710FFA0EB0901514502D9FC
:100C90000320BDE8F0872068696800F00C00B0EB25
:100CA000810FEFD1D8F80010404601F00701B142A2
:100CB00007D90770006800F00700B04201D001209A
:100CC000E7E72878400705D52068E96820F4E05078
:100CD000084320602878000706D52068296920F499
:100CE000604040EAC100206000F038F82168084AFE
:100CF000C1F30311515CC84006490860064800680A
:100D0000FFF7FAFE0020C4E7003C0240083802402A
:100D1000AE3500082C0000202400002004480549BE
:100D200000680968044AC1F38221515CC8407047D9
:100D30002C00002008380240BE3500080448054950
:100D400000680968044AC1F34231515CC8407047E9
:100D50002C00002008380240BE350008154810B5A8
:100D6000006810F00C02144813D04110042A0FD070
:100D7000082A0ED10F4C241F2268236802F03F027C
:100D80005B0207D52068C0F38810A0FB010106E0D4
:100D9000084610BD2168C1F38811A1FB00010023A2
:100DA000FFF76AFA2168C1F30141491C4900B0FB11
:100DB000F1F010BD083802400024F4002DE9F84F8E
:100DC00004006ED02078DFF84C93C007A9F1040529
:100DD0004AD009F104000168C1F38101012908D05A
:100DE0000068C0F3810002280AD1D9F8000040024F
:100DF00006D52868800337D560680028E1D033E045
:100E00006068B0F5803F10D0B0F5A02F286810D0F2
:100E100020F480302860286820F4802028606068F2
:100E2000A8B1FFF741FE06460DE0286840F4803087
:100E3000F4E740F480202860F7E700BFFFF734FEB6
:100E4000801B642873D828688003F7D50CE0FFF76F
:100E50002BFE064605E000BFFFF726FE801B642838
:100E6000F0D828688003F7D42078DFF8AC828007B8
:100E70004FF0000A3ED5A748001D016811F00C0F85
:100E800008D00068C0F3810002280BD1D9F8000017
:100E9000400207D42868800716D5E068012800D1F1
:100EA00012E033E1E068B8B10120C8F80000FFF7B4
:100EB000FBFD064605E000BFFFF7F6FD801B02289C
:100EC000C0D828688007F7D52868216920F0F80085
:100ED00040EAC10028600DE0C8F800A0FFF7E4FD7B
:100EE000064604E0FFF7E0FD801B02281FD82868B3
:100EF0008007F7D42078000722D5864F874861699C
:100F0000703771B101210160FFF7CEFD064604E0A4
:100F1000FFF7CAFD801B022809D838688007F7D57B
:100F20000EE0C0F800A0FFF7BFFD064605E082E036
:100F3000FFF7BAFD801B02287DD838688007F7D4F8
:100F40002078400768D5DFF8CCB100270BF13C0BC7
:100F5000DBF80000C0000BD4DBF8001041F080513A
:100F6000CBF80010DBF80000012700F08050009063
:100F70006B4E3068C00510D4306840F4807030602B
:100F8000FFF792FD009005E0FFF78EFD0099401AF3
:100F9000022850D83068C005F6D55E4EA0686C3681
:100FA00001280FD00528306810D020F001003060F3
:100FB000306820F004003060A068B8B1FFF774FD1D
:100FC00000900FE0306840F00100F4E740F00400CA
:100FD0003060F7E7FFF768FD0099411A41F2883069
:100FE000814266D830688007F4D50EE0FFF75CFDDB
:100FF000009007E0FFF758FD0099411A41F2883050
:10100000814256D830688007F4D42FB1DBF8001045
:1010100021F08051CBF80010A069C8B33D49091DEB
:101020000968C1F3810102294AD00228504607D03D
:10103000C8F8600000E03CE0FFF736FD04463BE006
:101040004746C8F86000FFF72FFD064605E000BFE1
:10105000FFF72AFD801B02282BD828688001F7D4CF
:10106000D4E907010843A16A2E4A490802EB01416D
:10107000626A41EA8211084394F82C1040EA016147
:10108000C9F8001001203866FFF70EFD044606E09F
:101090003EE000BFFFF708FD001B022809D82868C2
:1010A0008001F7D534E000BFFFF7FEFC001B0228EB
:1010B00002D90320BDE8F88F28688001F4D427E026
:1010C0000128F7D0D9F80000E26900F480019142CC
:1010D0001CD1226A00F03F01914217D147F6C0713E
:1010E000626A0140B1EB821F10D1A26A4FF0FF3358
:1010F00000F4403103EB5202B1EB024F06D194F8F9
:101100002C1000F07060B0EB016F01D00120D1E72E
:101110000020CFE70438024000004742800E4742DB
:10112000007000400000FFFF10B5401EB0F1807F4E
:1011300001D3012010BD4FF0E02460610F21601742
:1011400001F039FE0020A06107202061002010BDC1
:101150007047704770B590F83C20012A2CD00124CC
:1011600080F83C40022280F83D2003685A689D6860
:1011700022F070060A6832435A60104B02689A42A5
:101180000ED0B2F1804F0BD00D4B9A4208D00D4BD0
:101190009A4205D00C4B9A4202D00C4B9A4204D191
:1011A000496825F080031943916080F83D40002193
:1011B00080F83C10084670BD022070BD0000014060
:1011C0000004004000080040000C004000400140C6
:1011D00010B5040003D094F83D0010B107E00120E1
:1011E00010BD002084F83C00204600F01FF80220CB
:1011F00084F83D00211D206801F05EF9012084F88B
:10120000460084F83E0084F83F0084F8400084F8EB
:10121000410084F8420084F8430084F8440084F8D4
:10122000450084F83D00002010BD000008B50168AD
:101230001748814212D11748016841F0010101604D
:101240000068002200F00100009011461920FFF70D
:1012500099FCBDE808401920FFF786BC0D48001F27
:10126000B1F1804F0BD00C4A914207D1016841F097
:1012700002010160006800F00200009008BD0168F2
:1012800041F001010160006800F00100F5E7000095
:1012900000000140443802400004004090F83D1036
:1012A000012901D001207047022180F83D1001681A
:1012B000CA6842F00102CA6000680E4988420ED036
:1012C000B0F1804F0BD00C49884208D00B498842BE
:1012D00005D00B49884202D00A49884204D181686E
:1012E00001F00701062903D0016841F00101016006
:1012F000002070470000014000040040000800404A
:10130000000C00400040014070B5044690F83C00DD
:101310000025012817D0012684F83C60022084F8BB
:101320003D002068826822F0770222F47F428260CA
:101330000868502838D00DDC20284FD005DC90B349
:10134000102811D14AE0022070BD302846D0402834
:101350000AD13BE060282FD070280DD0B0F5805F17
:1013600003D0B0F5005F12D0012584F83D60002065
:1013700084F83C00284670BDCB68D1E90121206883
:1013800001F0F3F82068816841F0770109E0CB684B
:10139000D1E90121206801F0E8F82068816841F472
:1013A00080418160E1E719E0CA684968206801F07E
:1013B00049FB5021206806E0CA684968206801F0AE
:1013C00052FB6021206801F035FBCEE7CA6849680E
:1013D000206801F037FB40212068F4E722680146CD
:1013E0001046F0E72DE9F0410D46040003D094F8D3
:1013F0003D0018B108E00120BDE8F081002084F82C
:101400003C00204600F040F8022084F83D002068AF
:10141000816844F2070291438160211D206801F038
:101420004BF8226890689169166A2B68AF6903438C
:1014300040F20330814341EA0721A868EF6908437D
:101440004FF6FC418843E96840EA072001432869D8
:101450002F6A000140EA0730084369686D6926F089
:10146000AA0646EA0515294393602268906154F85C
:10147000460B0162012004F81F09E0752076E07632
:101480002077A0750020B7E710B586B00446142178
:101490006846FEF768FF17492068884227D116483A
:1014A000016841F004010160006800F0040005904B
:1014B00011481038016841F0020101600068012103
:1014C00000F002000590C02000900220CDE901014B
:1014D0000321CDE9031069460848FFF7EFF9002220
:1014E00011461E20FFF74EFB1E20FFF73DFB06B006
:1014F00010BD0000000800404038024000040240D7
:1015000070B590F83E60044690F83F5090F8423035
:1015100090F84320022021B104290ED0012E1BD1C6
:1015200014E0012E18D1012B16D184F83E0084F866
:10153000420001220021206820E0012D0CD1012A67
:101540000AD184F83F0084F8430014E0012D03D150
:10155000012B01D1012A01D0012070BD84F83E0089
:1015600084F83F0084F8420084F8430001220021FF
:10157000206800F0EDFF01220421206800F0E8FF60
:101580002068016841F001010160002070BD7047D2
:1015900070B50446006801694FF00005C94389072A
:1015A00015D4C168C943890711D4E91E016101201E
:1015B0002077206880698007204602D0FFF7E7FF88
:1015C00004E000F0D7F8204600F069F9257720689C
:1015D0000169C943490717D4C168C943490713D4EE
:1015E0006FF004010161022020772068806910F407
:1015F000407F204602D0FFF7CAFF04E000F0BAF8AF
:10160000204600F04CF9257720680169C943090795
:1016100016D4C168C943090712D46FF008010161EB
:10162000042020772068C0698007204602D0FFF799
:10163000AEFF04E000F09EF8204600F030F9257778
:1016400020680169C943C90617D4C168C943C906DE
:1016500013D46FF010010161082020772068C06961
:1016600010F4407F204602D0FFF791FF04E000F025
:1016700081F8204600F013F9257720680169C943F5
:10168000C90708D1C168C943C90704D1891E0161CE
:10169000204600F05DF920680169C943090609D4B4
:1016A000C168C943090605D46FF080010161204675
:1016B000FFF74EFD20680169C943490609D4C16896
:1016C000C943490605D46FF040010161204600F08E
:1016D0007FF920680169C94389060BD4C168C943F1
:1016E000890607D46FF0200101612046BDE87040F3
:1016F000FFF72FBD70BD000030B587B00446142140
:101700006846FEF730FE25680024164802210322B1
:101710000123B5F1804F15D0134CA54210D10468B8
:1017200044F004040460006800F004000590802088
:101730008DE80B00CDE9032169460C48FFF7BEF8A0
:1017400007B030BD056845F002050560006800F08F
:101750000200059008208DE8130069460448CDE991
:101760000323EBE730380240000400400008024049
:1017700000040240704770B5044690F83C00002613
:101780000D4601280FD0012084F83C006AB1042ADC
:101790001DD0082A2FD00C2A3FD00126002084F823
:1017A0003C00304670BD022070BD206801F0CCF8CE
:1017B0002068816941F0080181612068816921F018
:1017C00004018161206881692A69114311E0206860
:1017D00000F0D6FE2068816941F4006181612068D3
:1017E000816921F480618161206881692A6941EA07
:1017F00002218161D2E7206801F0CEF82068C1693A
:1018000041F00801C1612068C16921F00401C16192
:101810002068C1692A69114311E0206801F0E8F8E5
:101820002068C16941F40061C1612068C16921F487
:101830008061C1612068C1692A6941EA0221C161F0
:10184000ACE710B5040003D094F83D0010B107E0F8
:10185000012010BD002084F83C00204600F01EF856
:10186000022084F83D00211D206800F025FE0120A3
:1018700084F8460084F83E0084F83F0084F8400075
:1018800084F8410084F8420084F8430084F844005E
:1018900084F8450084F83D00002010BD7047704773
:1018A00010B50446022249B104290ED0082913D0EC
:1018B00094F84100012816D0012010BD94F83E0094
:1018C0000128F9D184F83E200FE094F83F00012868
:1018D000F2D184F83F2008E094F840000128EBD1D1
:1018E00084F8402001E084F841200122206800F0C3
:1018F0002FFE12492068884203D1426C42F4004214
:101900004264206888420ED0B0F1804F0BD00C4961
:10191000884208D00B49884205D00B49884202D042
:101920000A49884204D1816801F00701062903D0E1
:10193000016841F001010160002010BD000001407C
:101940000004004000080040000C0040004001403E
:1019500010B5044600681749884201D100F05AFCCE
:1019600015492068884224D114480078002820D0E6
:10197000FEF770FD124C9FED130AA06000F018FDF9
:101980001148D4ED020A90ED000AF8EEE00A0F4883
:1019900000F05AFC0D4890ED0B0ABDEEC00A10EEA7
:1019A000100A00B200F082FEBDE810400020FEF7F1
:1019B0007DBD10BD00080040000001400000002077
:1019C000100000200000000050000020C80000208F
:1019D000704738B5044690F83E00202822D181B1E6
:1019E0007AB194F83C0001281CD0012084F83C0016
:1019F0002063204600F0F0FD002803D1216B01296F
:101A000001D0012038BD21680A6849680091216829
:101A10000C3151E8002F42F0100241E80023002B66
:101A2000F5D138BD022038BD10B50C460068154907
:101A3000884203D010BD144800F02EF80322134949
:101A40001148FFF7C6FF0028F5D11148006801686A
:101A500021F008010160032CECD10C4A101FB2F9EF
:101A60000010418092F9022002700A48642900D1D6
:101A70002AB10022BDE810402021FFF70FB8012253
:101A8000F8E7000000440040180200201400002085
:101A90005C0200200000024010B504460068406966
:101AA00094F83D10C0F3C010212911D180B12068F5
:101AB000143050E8001F21F0800140E80012002A95
:101AC000F5D1606B08B1FEF72CFD204601F01CF942
:101AD0002068406994F83E10C0F38010222911D18B
:101AE00080B12068143050E8001F21F0400140E828
:101AF0000012002AF5D1A06B08B1FEF712FD2046B6
:101B000001F0DBF8002010BD10B500680A498842DA
:101B100003D010BD0948FFF7BFFF0322084907485B
:101B2000FFF757FF0028F5D106480068016821F04B
:101B30000801016010BD00000044004018020020B0
:101B4000140000205C020020F8B501680446086813
:101B5000CA684B6910F00F0F4FF000055AD003F020
:101B6000010602F49077374365D0C10705D0D1054F
:101B700003D5216C41F001012164410705D5D90746
:101B800003D0216C41F002012164810705D5D907FA
:101B900003D0216C41F004012164010707D502F054
:101BA0002001314303D0216C41F008012164216CF4
:101BB00000293BD0800604D5900602D5204601F0CE
:101BC0000FF820684069216CC0F3801001F0080113
:101BD000014320462BD001F070F820684069400690
:101BE00021D52068143050E8001F21F0400140E862
:101BF0000012002AF5D1A06BA8B16C490165A06B59
:101C0000FEF7D8FC002811D0A06B016D01B0BDE833
:101C1000F040084783060ED593060CD52046BDE854
:101C2000F84000F0DDBF2046FFF76EFFF8BDFFF77C
:101C30006BFF2564F8BD266B2023012E79D1C606E3
:101C400077D5D60675D5086848680090486940067B
:101C500040D5A16B086840680004000CEAD0A28D52
:101C60008242E7D9E085C869B0F5807F2DD0206831
:101C70000C3050E8001F21F4807140E80012002A67
:101C8000F5D12068143050E8001F21F0010140E830
:101C90000012002AF5D12068143050E8001F21F00E
:101CA000400140E80012002AF5D184F83E30256357
:101CB00020680C3050E8001F21F0100140E80012AD
:101CC000002AF5D1A06BFEF72CFCA08DE18D401A07
:101CD00081B229E0A08DE18D401A81B2E08D00280B
:101CE000A8D00029A6D020680C3050E8002F22F49C
:101CF000907240E80026002EF5D12068143050E89C
:101D0000002F22F0010240E80026002EF5D184F8D1
:101D10003E30256320680C3050E8002F22F010027E
:101D200040E80023002BF5D12046FFF77DFEF8BDEB
:101D3000FFE705062BD5150629D594F83D00212887
:101D4000F5D1A068B0F5805F01D12069B0B1206AFB
:101D5000411C2162216800784860E08C401E00042C
:101D6000000CE084E3D12068C16821F08001C160EB
:101D70002068C16841F04001C160D8E7206A00884E
:101D8000C0F308004860206A801C2062E5E7400636
:101D9000CDD55006CBD5CA68204622F04002CA6095
:101DA00084F83D3000F09EF8C1E70000A72D000840
:101DB00070B5040004D094F83D00002510B106E091
:101DC000012070BD84F83C50204600F023F8242008
:101DD00084F83D002068C16821F40051C1602046AC
:101DE00000F078FE2068016921F4904101612068CB
:101DF000416921F02A0141612068C16841F4005124
:101E0000C1602564202084F83D0084F83E00002055
:101E100070BD00002DE9F04387B0064614216846E6
:101E2000FEF7A1FA2949306888424CD1284800259C
:101E3000016841F400310160006800F40030059051
:101E400023481038016841F0010101600068022454
:101E500000F001000590042003274FF007088DE8EB
:101E6000B101DFF8709069464846FEF727FD08206B
:101E7000CDE9000402AA012082E8810169464846B2
:101E8000FEF71CFD154C144820604FF00060C4E9BB
:101E900001054014C4E9035080106561C4E906508F
:101EA0004002C4E908052046FEF766FC08B1FEF7CB
:101EB00036FBB463002211462620A663FEF762FEBD
:101EC0002620FEF751FE07B0BDE8F0830044004035
:101ED0004038024000000240886002405C0200205E
:101EE000704770477047FEE7094808B5016841F43C
:101EF000001101600068002200F4001000901146FB
:101F00001020FEF73FFEBDE808401020FEF72CBE73
:101F1000303802402DE9F04387B014216846FEF7BF
:101F200022FA28480024016841F08001016001681C
:101F300001F080010591016841F001010160016833
:101F400001F001010591016841F00401016001689F
:101F500001F004010591016841F00201016000688F
:101F6000DFF8648000F00200059000224FF48461E5
:101F70004046FEF793FDDFF85490002220214846AA
:101F8000FEF78CFD202601250096CDE90154694617
:101F900040460394FEF792FCA8020227CDE9000513
:101FA000CDE9024769464046FEF788FC0397009654
:101FB000CDE9015469464846FEF780FC07B0BDE80C
:101FC000F08300003038024000000240000402406C
:101FD00010B586B00024184800940194029403942C
:101FE000049414490594016040F2E731C0E90114FA
:101FF00040F28F61C0E9031444618461FFF7E8F89F
:1020000008B1FEF78CFA4FF48050009069460A48F8
:10201000FFF77AF908B1FEF782FA049404A906489A
:102020000594FFF797F8002801D0FEF778FA06B07C
:1020300010BD000000000140F800002010B58EB077
:1020400000240794089409940A940B941C21684670
:102050000C94FEF788F91D484FF080410160532130
:10206000C0E901146321C0E903148461FFF7B0F8EB
:1020700008B1FEF754FA4FF48050079007A91348AF
:10208000FFF742F908B1FEF74AFA1048FFF7D9FB0B
:1020900008B1FEF744FA0B940BA90C480C94FFF717
:1020A00059F808B1FEF73BFA6020CDE9000402942C
:1020B0000422694605480494FFF75DFB08B1FEF76A
:1020C0002EFA0248FFF718FB0EB010BD40010020A9
:1020D00010B58EB000240794089409940A940B94C8
:1020E0001C2168460C94FEF73EF91F481D4901600B
:1020F00040F24731C0E9011440F2E731C0E903146E
:102100008461FFF765F808B1FEF709FA4FF48050D3
:10211000079007A91448FFF7F7F808B1FEF7FFF991
:102120001148FFF78EFB08B1FEF7F9F90B940BA9E4
:102130000D480C94FFF70EF808B1FEF7F0F9602097
:10214000CDE9000402940422694607480494FFF78D
:1021500012FB08B1FEF7E3F90348FFF7CDFA0EB022
:1021600010BD0000000400408801002010B58CB0B4
:1021700024216846FEF7F7F800241648099414490C
:102180000A94C0E90014C913C0E9024104618461E2
:102190000320CDE900040120CDE9020407210491C8
:1021A000CDE90540CDE9074169460A48FFF71AF92C
:1021B00008B1FEF7B4F9099409A906480A94FEF794
:1021C000C9FF002801D0FEF7AAF90CB010BD00002D
:1021D00000080040D00100200C4810B50A490160F9
:1021E0004FF4E1314160002181600C22C160C0E9FF
:1021F00004128161C161FFF7DBFD002803D0BDE857
:102200001040FEF78CB910BD0044004018020020B9
:10221000FEE7FEE7054800680549C206086801D5E3
:10222000401E00E0401C08607047000000080040AD
:102230003000002080ED030A80ED0A2AC0ED092A53
:10224000C0EC030A7047000070B504462DED088B02
:10225000F0EE408A38EEE08A80ED048A006801F0F2
:1022600027F9434D41EC190B85ED009B606801F0A7
:102270001FF941EC1B0B85ED02BBA06801F018F9BA
:1022800041EC1A0B18EE100A85ED04AB01F010F9C1
:1022900053EC192B00F024FF00F030FE09EE100A79
:1022A00084ED069A94ED050A38EE400A10EE100A05
:1022B00001F0FEF853EC1A2B00F012FF00F01EFEA6
:1022C00009EE900A18EE100AC4ED089A01F0F0F831
:1022D00053EC1B2B00F004FF41EC1A0BE06901F0FA
:1022E000E7F853EC1A2B00F03BFE00F007FE00EE7F
:1022F000100AF5EEC08A84ED070A39EE000AD4ED23
:102300000B0A30EE290A30EE200ADFED1A0AF1EE50
:1023100010FA84ED0B0A84ED058A05DBB5EEC00AE0
:10232000F1EE10FA05D906E0B5EEC00AF1EE10FAAA
:1023300001DBC4ED0B0A94ED090AB5EEC00AF1EE1B
:1023400010FA0FD0D4ED0B0AB4EEE00AF1EE10FA59
:1023500006D3B1EE400AF4EEC00AF1EE10FA01D253
:1023600084ED0B0A94ED0B0ABDEC088B70BD0000E8
:1023700058000020000000009FED040A80ED040AD0
:1023800080ED0B0A80ED050A704700000000000098
:102390007047000010B504210348FFF781FA034994
:1023A0009320086010BD0000880100203804004020
:1023B0009FED101AB5EEC00A0F48F0EE411AF1EE8B
:1023C00010FA80ED010A02DDF0EE610A0FE0DFEDA8
:1023D0000B0AB5EEC00AF1EE10FA06D390ED002A12
:1023E000B5EEC02AF1EE10FAEED2B0EE601A024855
:1023F00000F07EB90000C842500000200000C8C2B2
:102400007047000010B5FEF755FB02480168491CF3
:10241000016010BD1C00002070B5194C2068194ADD
:1024200010F00C01184804D05510042903D00829D5
:1024300003D002601BE0056019E01149091F0B6819
:10244000C3F380560B6803F03F0316B1B5FBF3F2FC
:1024500001E0B2FBF3F20B680968C3F388135A4337
:10246000C1F30141491C4900B2FBF1F1016021684F
:10247000064AC1F30311515C0268CA40026070BD94
:10248000083802400024F4002C000020AE3500087B
:102490000248016841F470010160704788ED00E076
:1024A0000148FFF775B80000F80000200148FFF769
:1024B0006FB80000D0010020F0B502681D4B1E4C23
:1024C0009F031E4D1E4E984207D0B84205D0A04231
:1024D00003D0A84201D0B04204D122F0700C4A6867
:1024E00042EA0C02984210D0B8420ED0A0420CD062
:1024F000A8420AD0B04208D0124CA04205D0124CDB
:10250000A04202D0114CA04203D122F44074CA6808
:1025100022434C6922F08002224302608A68C26230
:102520000A688262984201D109690163012141610F
:10253000F0BD000000000140000400400008004021
:10254000000C0040004001400044014000480140B0
:1025500010B501F01F030121046A99408C43046205
:10256000016A9A401143016210BD10B5846842EAC5
:10257000032224F47F440A432243826010BD0000FA
:1025800030B5026A22F010020262026A436884696E
:102590000D6824F4E64444EA05248D6822F0200204
:1025A00042EA05120B4DA8420ED1CD6822F08002FE
:1025B00042EA05124D6923F4406343EA85038D69BD
:1025C00022F0400243EA85034360846149688163E5
:1025D000026230BD0000014038B58162828500256D
:1025E000134604460564222084F83E00A26B1C4872
:1025F000D063A26B1B481064A26B1B48D064A06B15
:102600000A4605652168A06B091DFEF71FF92068C1
:1026100001684068009084F83C50206948B1206807
:102620000C3050E8001F41F4807140E80012002A8D
:10263000F5D12068143050E8001F41F0010140E856
:102640000012002AF5D12068143050E8001F41F034
:10265000400140E80012002AF5D1002038BD0000FA
:10266000252D0008A12C00088B2A00080148FFF73F
:102670006BBA000018020020FEE7000010B504212C
:102680000748FFF70DF9002220210648FEF706FA59
:10269000BDE8104000224FF480610348FEF7FEB908
:1026A00040010020000402400000024070B5041EFA
:1026B00016D002DD0022012501E0012200252021A3
:1026C0000848FEF7EBF92A464FF480610648FEF70A
:1026D000E5F9002C00DA644204480068846370BDA8
:1026E0000022EBE70004024000000240400100200D
:1026F00070B504462DED048BB0EE408AF0EE418AB1
:10270000B0EE609A90ED000A00F065FBF0EE409AA2
:10271000B0EE480A00F05FFBF4EEC09A344DF1EEE3
:1027200010FA27D219EE100A00F0C2FE95ED021B36
:1027300053EC112B00F0D4FC41EC190B206800F095
:10274000B7FE53EC192B00F00BFC00F0D7FB00EEAA
:10275000100A84ED000A00F03EFBB0EE409AB0EEA5
:10276000480A00F038FBB4EEC09AF1EE10FA01DB33
:1027700084ED008A94ED000A00F02DFBB0EE409A43
:10278000B0EE480A00F027FBB4EEC09AF1EE10FA62
:1027900024DD18EE900A00F08BFE95ED021B53EC41
:1027A000112B00F09DFC41EC190B206800F080FE1D
:1027B00053EC192B00F092FD00F0A0FB00EE100A84
:1027C000F5EEC08A84ED000AF1EE10FA09DBB4EEF2
:1027D000C80AF1EE10FA01D884ED008ABDEC048B32
:1027E00070BDB4EEC80AF1EE10FAF5DAF6E70000B3
:1027F0004000002030B593B030216846FDF7B3FDAE
:1028000014210CA8FDF7AFFD1D480025016841F01B
:1028100080510160006800F08050119019480168F3
:1028200021F4404141F4004101600068022400F4B9
:102830004040119001200090000401908001CDE9FA
:10284000064008AA0420542182E813000B90684631
:10285000FEF7B4FA08B172B6FEE70CA90F2081E8C2
:1028600031004FF48050CDE90F0502210CA8FEF78E
:10287000BBF9002801D072B6FEE713B030BD0000EE
:1028800040380240007000409FED050A022180EDB3
:10289000000A80ED010A01740A21416170470000BD
:1028A0000000000030B50468256825F48025256007
:1028B000046863608368402B036803D099600068F4
:1028C000C26030BD9A600068C16030BD10B501467D
:1028D00000208B698A6A4FF0C07453B1B3F5005F72
:1028E00015D072B1012A0CD0022A0AD0032A09D1CC
:1028F00004E01AB1012A06D0022A03D1C96AC9012B
:1029000000D5012010BDC96AA142FAD010BD002A2D
:10291000F7D0012AF2D0022AF3D0032AF3D010BD57
:1029200001681823CAB2103AB2FBF3F2054B6FF3F9
:102930000901032A9B5CC36500D9091D816508460E
:1029400070470000A635000830B5026A22F0010287
:102950000262026A4368846924F073050C682C43A0
:1029600022F002058A682A430A4DA8420BD122F0C0
:102970000805CA6823F440732A434D6922F0040213
:102980001D438B692B434360846149684163026244
:1029900030BD00000000014030B5026A22F48072B0
:1029A0000262036A4268C46923F4007324F0730569
:1029B0000C682C438D6843EA05230C4DA8420ED1C8
:1029C000CD6823F4006343EA05234D6922F44052A5
:1029D00042EA05128D6923F4806342EA05124260DF
:1029E000C4614968C163036230BD0000000001405A
:1029F00030B5026A22F480520262046A4268C369F6
:102A00000D6823F4E64343EA05238D6824F400545B
:102A100044EA0534064DA84204D14D6922F48042AF
:102A200042EA85124260C36149680164046230BDB4
:102A300000000140826822F070020A4342F0070160
:102A40008160704710B5036A046A24F001040462CF
:102A5000846924F0F00444EA021423F00A020A43D1
:102A60008461026210BD10B5036A23F01003036293
:102A70008369046A23F4704343EA023224F0A0031A
:102A800043EA01118261016210BD70B5846B206858
:102A9000406994F83D10C0F3C0100025212904D1ED
:102AA00018B1E584204600F02FF92068406994F8B9
:102AB0003E10C0F38010222904D118B1E5852046CC
:102AC00000F0FBF8206C40F0100020642046FFF777
:102AD0001BF870BD70B5044600680169E26821F416
:102AE0004051114301612169A068E26908436169AD
:102AF000114308432168CA6849F20C639A430243B0
:102B0000CA6020684169A26921F4407111434161A2
:102B100031492068884202D03049884202D1FEF70C
:102B20000DF901E0FEF7FAF8E269002319216425A6
:102B30003226B2F5004F626828D0A0FB0101930F46
:102B40009200FDF799FB0146B0FBF5F06FF018021B
:102B5000504301EB800006EB0010B0FBF5F000F0F5
:102B6000F002B1FBF5F002EB0012B1FBF5F06FF0F3
:102B70001803584301EB800006EB0010B0FBF5F0A2
:102B800000F00F0021681044886070BDA0FB0101B7
:102B900092185B41FDF770FB0146B0FBF5F00201B6
:102BA000B1FBF5F06FF01803584301EB800006EB22
:102BB000C000B0FBF5F000F0F80002EB4002B1FB02
:102BC000F5F0584301EB800006EBC000B0FBF5F0D8
:102BD00000F00700D6E7000000100140001401409B
:102BE00008B590F83E10222901D0022008BD826865
:102BF0004FF480539A4201D1016921B1816A9A420E
:102C00001BD04AB10AE00268816A5268C2F3080226
:102C10000A80816A891C08E0026972B10268526800
:102C200002F07F020A70816A491C8162C18D491ECF
:102C30000904090CC18503D019E002685268F1E764
:102C40000168CA6822F02002CA600168CA6822F4DA
:102C50008072CA6001684A6922F001024A6120213B
:102C600080F83E10016B012903D0FFF739F90020ED
:102C700008BD0021016301680C3151E8002F22F0EA
:102C8000100241E80023002BF5D101680A68D20642
:102C900002D50A6849680091818DFEF7C5FEE6E716
:102CA00010B5806B016B012902D0FFF71AF910BD36
:102CB000818D4908FEF7B8FE10BD01680C3151E85E
:102CC000002F22F4907241E80023002BF5D1016817
:102CD000143151E8002F22F0010241E80023002BBB
:102CE000F5D1016B012909D101680C3151E8002FA0
:102CF00022F0100241E80023002BF5D1202180F8BA
:102D00003E1000210163704701680C3151E8002F2B
:102D100022F0C00241E80023002BF5D1202180F8E9
:102D20003D10704710B50146806B09680968C905F8
:102D30002FD40021C18501680C3151E8002F22F405
:102D4000807241E80023002BF5D10168143151E86D
:102D5000002F22F0010241E80023002BF5D1016889
:102D6000143151E8002F22F0400241E80023002BEB
:102D7000F5D1202180F83E10016B012909D10168AD
:102D80000C3151E8002F22F0100241E80023002B03
:102D9000F5D1016B012902D0FFF7A2F810BD818D9A
:102DA000FEF742FE10BD10B5806B0021C185C184C5
:102DB000FEF7AAFE10BD0907090E002804DB00F18A
:102DC000E02080F80014704700F00F0000F1E020D0
:102DD00080F8141D7047B0EEC00A70470148FFF735
:102DE00053BD0000700000202DED028BFDF76AFE40
:102DF000FFF700FDFFF78EF8FFF776F8FFF7E8F82A
:102E0000FFF71CF9FFF764F9FFF7B0F9FFF7E4F9F2
:102E1000FFF702FB29482A490068B0FBF1F0401E89
:102E2000B0F1807F0AD24FF0E0214861254AF020BE
:102E300082F8140D00208861072008612248FEF7FF
:102E40002DFAFFF71BFCFDF71FFBFFF7A3FA204C41
:102E50009FED1E0A204884ED000A9FED1E8A204D3A
:102E600080ED008A9FED1D0A1E4985ED000A0120B4
:102E700008701D48FFF780FADFED1C2AB0EE482AE3
:102E8000D5ED001AB0EE481AD4ED000AB3EE040AEC
:102E90001548FFF7CFF902E01548FEF7FDFD0322C4
:102EA00014491348FEF795FD0028F5D11248006833
:102EB000016821F008010160FEE700002C000020FD
:102EC00040420F000FE000E0F8000020650B943E48
:102ED0000400002000000000080000205F019C3E6C
:102EE0000C00002000000020C8000020000020424C
:102EF00018020020140000205C02002021F0004293
:102F0000A2F16052B2F5801F01F0004328BFD2F158
:102F10007F6C0BD95FEA001C43EAC20242EB50709F
:102F200018BF704728BF20F001007047B2F5801F1E
:102F3000BCBF184670474FEA410C1CF5001F02D277
:102F4000084600F02BBB70B500F074F90000008952
:102F5000FFF7F6BF4FF00040A0F58000704700007B
:102F600010B591EA030F48BF83F0004300F1BE8122
:102F7000841A71EB030C05D2121943EB0C03001BEE
:102F800061EB0C01DFF824E14FEA1154A4EB135C70
:102F90001EEA430F18BF9EEA445F73D023EA0E0374
:102FA000DCF1200E21EA045143F4801332D322FADB
:102FB0000CFE10EB0E0023FA0CFE41EB0E01CCF1DF
:102FC000200E03FA0EFE10EB0E0051F10001B1F5D8
:102FD000801FCCF1200E32D201EB045112FA0EF216
:102FE000BDE8104058BF7047401C38BF5FEA42023E
:102FF00018BF7047002814BF20F0010041F1000104
:103000004FEA410313F5001F38BF7047A1F1C041DB
:1030100000F05EB9012A43EB0302ACF1200CDCF1B5
:103020001F0E32BF4FF0000E23FA0CF310EB03001B
:1030300041EB0451B4EB115FD0D0A1EB045101F589
:10304000801149085FEA300001EB04510ED350F1C2
:10305000000038BF12FA0EFE08D1BDE81040C9E7E3
:10306000401C38BF5FEA4202CAD1C3E7BDE8104046
:103070004FEA410313F5001F38BF7047A1F1C0416B
:1030800000F026B99EEA445F08D011EA5E0FBDE861
:10309000104004BF01F0004100207047BDE810401F
:1030A00070B500F0C7F800BF64FBBE3E0000E0FF53
:1030B00010F0004248BF4042B0FA80F310FA03F12A
:1030C0000AD0C3F11D0303F580634FEA415002EBC0
:1030D000035202EBD12170474FF00000704700000F
:1030E000DFF848C170B51CEA111E1EBF1CEA13159B
:1030F0009EEA0C0F95EA0C0F00F06F8081EA030442
:1031000023EA4C134EEAD47E21EA4C1141F480119B
:1031100043F48013AE44A1FB024CA0FB0365AEF167
:103120007F7E361955EB0C05A1FB034C4CF10003D7
:10313000A0FB021C16EB0C06654153F1000309428B
:1031400018BF46F0010613F4007F0BD14FEA03319C
:103150004FEA0530340341EA155140EA16506FF04A
:1031600003020AE04FEAC3214FEAC520F40241EA14
:10317000555140EA56506FF0020202EB2E4201EB2D
:10318000025585EACE710AD05FEA440C18BF24F0DC
:10319000004450F1000041F1000120EAD47040F2F7
:1031A000FE7C624500D270BDA84214BF4FF080443F
:1031B0004FF04044002E08BF0024BEF1806FA8BF2E
:1031C000A1F1C041BDE8704080F282804FF0000064
:1031D00001F1C04101F0004170479EEA0C0F0CEA7A
:1031E000131518BF95EA0C0F06D04FF0000081EAC6
:1031F000030E0EF0004170BD00F01CF88900013E86
:1032000000F007B800F009B84FEA430C5FEA5C5CD5
:1032100008D081EA030100F05BB84FEA410C5FEA95
:103220005C5CF6D14FF00000014970470000FF07D9
:103230000000F87F0EF1020E2EF0030E5EF8046B14
:10324000364205D4012A43EB030515F5001F12D8B9
:10325000012841EB010C1CF5001F0CD80ED14FEAE0
:10326000D17C15F5001F0CEB4C0C0CF1020C08BFC7
:103270004CEBD37C04E04FF0080C01E04FEAD37C28
:103280000CEB4C0526FA05F606F00706B6F1040C21
:1032900006D20EEB860CBDE870404CF0010C604786
:1032A000DFE80CF0090B02024FF000414FF0000084
:1032B000A1F5002170BD19461046012851EB01040B
:1032C00018BFD4F5001484BF002001F0004170BD88
:1032D0000808A0F500114FEA3101704710B591EAD6
:1032E000030F48BF83F000433FF542AE841A71EBF1
:1032F000030C07D212198CF0004C43EB0C03001B9B
:1033000061EB0C01DFF8A4E14FEA1154A4EB135C6C
:103310001EEA430F18BF9EEA445F00F0B08023EA24
:103320006E03524221EA0451C3EB6E0338BF5B1EA9
:10333000DCF1200E25D322FA0CFE10EB0E0043FA2E
:103340000CFE41EB0E01CCF1200E03FA0EFE10EB49
:103350000E0051F10001CCF1200E29D412FA0EF228
:1033600001EB0451BDE8104058BF7047401C1CBF22
:10337000B2F1004F704700280CBF491C20F001003B
:10338000704712EB020E43EB030218BF4FF0010E21
:103390004EEA4202ACF1200CDCF11E0E54D943FA85
:1033A0000CFE10EB0E0051F1FF31CCF11E0ED5D505
:1033B0000EF1010E12FA0EFE404141EB010101EB4C
:1033C000445C5FEA5C5C10D910EBDE7001EB0451E9
:1033D00038BFBEF1004FBDE8104018BF704700284D
:1033E0000CBF491C20F00100704730D24FEAD42CAA
:1033F00011F5001124F400641BD0B1FA81F20B3AEC
:10340000A41AA41ED2F12003914030FA03F3194309
:10341000904001EBCC71002C01EB0451BDE8104051
:10342000A8BF704701F1C0414FF0000001F000411A
:103430007047B0FA80F310FA03F100D110BDE41A1E
:10344000173C4805C90AE4E701EB045110BD4910D7
:1034500001EB0451BDE810404FEA300002E04FF0AC
:10346000000170474A0008BF0042F8D0B2F5001FC3
:1034700028BF704701F000414FF0000070479EEAFE
:10348000445F07D011EA5E0FBDE8104004BF002181
:1034900000207047BDE8104070B5FFF7CBFE00BFBD
:1034A00040DFF63E83F00041104670470000E0FF29
:1034B00043004FEAD30C4FEA3C0C43401FBF400788
:1034C0000CF1605113F0FE4F70471CF0006F03D1F8
:1034D00000200CF0004170470CF0004343EA5070AC
:1034E00010B540EACC0000F00EF800BF00000092DA
:1034F0004FEA0001FFF7ECBE4FF000414FF0000033
:10350000A1F5002170470EF1020E2EF0030E5EF8B9
:10351000044B244204D44FEA4102B2F17F4F11D848
:103520004FEA4003B3F17F4F0CD80ED14FEAD07C65
:10353000B2F17F4F0CEB4C0C0CF1020C08BF4CEBC2
:10354000D17C04E04FF0080C01E04FEAD17C0CEB99
:103550004C0324FA03F404F00704B4F1040C06D27B
:103560000EEB840CBDE810404CF0010C6047DFE826
:103570000CF0070802024FF00040A0F5800010BDDB
:103580000846420018BFD2F1807288BF00F00040A8
:1035900010BD4FF04070E1EE100A7047FF2141EA84
:1035A000D050C00570470006101600061016000027
:1035B00000000000000001020304060708090000E3
:1035C0000000010203040000EC35000800000020A8
:1035D00070000000D00100085C3600087000002078
:1035E000B0080000EC010008F5F7FFFF0000000044
:1035F00000000000000000000000000000000000CB
:1036000000000000000000000000000001000000B9
:1036100010000000000000000024F4000000000082
:10362000000000000000000000000000000000009A
:10363000000000009A9999999999B93F00000000FB
:10364000000000000000000000000000000000007A
:0C3650000000000000000000000000006E
:040000050800019559
:00000001FF
